:100000000C9431030C9478030C9478030C947803CB
:100010000C9478030C9478030C9478030C94780374
:100020000C9478030C9478030C94382B0C940A2CC1
:100030000C94DE220C9478030C9478030C947803CF
:100040000C9478030C9478030C9478030C94780344
:100050000C9478030C9437230C9478030C94780355
:100060000C9478030C9478030C9478030C94780324
:100070000C9478030C9478030C9478030C94780314
:100080000C9478030C9478030C9478030C94780304
:100090000C9478030C9478030C9478030C947803F4
:1000A0000C9478030C9478030C94780391109410BA
:1000B0009C10A110A610AB10B010B510BA10BF1054
:1000C000C410C910CB10CE10D110D410D710DA1034
:1000D000DC10E1101B121E123E124F125712621258
:1000E000651268126B12B112B4126E12711276128E
:1000F0008312901293129712A4124F194F1981195B
:100100008119CE19EC19001B001BF719901AA11ABE
:10011000A11AA01BA01BB21BB21BA91BB21BB21BB6
:10012000B21BA01BA01BAE1BB21BB21BAE1B772CBD
:100130009E2C962D9E2C962DEA2C0D2D962D642D01
:10014000732D07634236B79BD8A71A39685618AE85
:10015000BAAB558C1D3CB7CC5763BD6DEDFD753EFC
:10016000F6177231BF000000803F05A84CCDB2D415
:100170004EB93836A9020C50B9918688083CA6AA17
:10018000AA2ABE000000803F68747470733A2F2F53
:10019000716D6B2E666D2F0A00514D4B20697320D7
:1001A0007468652062657374207468696E67206581
:1001B0007665722100290014001A00080015001746
:1001C000001C0018000C00120013002A00E00004BC
:1001D000001600070009000A000B000D000E000FBA
:1001E000002D002800E1001D001B0006001943053A
:1001F0004211411000360037005200E500E200E3F2
:1002000000000000002C41000028422C6200005039
:100210000051004F002B001E001F00200021002273
:1002200000230024002500260027002A00E0001EED
:10023000021F022002210222022E022D0025023876
:10024000002E002800E10000000000000000000077
:1002500000000000002F0030005200E500E200E343
:1002600000000000002C00000028002C02000050BC
:100270000051004F002B003A003B003C003D003E87
:10028000003F0040004100420043002A00E0002FF0
:100290000030003100330033025000510052004F53
:1002A0000038022800E1002D00310223023502004F
:1002B0000000000000000000005200E500E200E342
:1002C00000000000002C00000028002C000000505E
:1002D0000051004F002B001E021F022002210222AB
:1002E00002230224022502260227022A00E000C37C
:1002F0005CC45CC65CC75CC85CC95CC95CCA5CCBDE
:100300005C00002800E10000000000000000000088
:100310000000000000000000005200E500E200E3E1
:1003200000000000002C000000005C2C00000050C9
:100330000051004F0000000000000000002A2B28A0
:1003400000000000000000000000000000000000AD
:1003500029000000002C1E342021222434262725C9
:100360002E362D3738271E1F202122232425263301
:1003700033362E37381F0405060708090A0B0C0D03
:100380000E0F101112131415161718191A1B1C1D15
:100390002F3130232D350405060708090A0B0C0DF3
:1003A0000E0F101112131415161718191A1B1C1DF5
:1003B0002F3130354C00000000000000000000002C
:1003C0000000000000000000007E0F00D4FFFFFFCF
:1003D000C70000007832190A00047F3F1F643214FE
:1003E000643214783C1E1E140A05FFAA7F55400093
:1003F00001010101010101010102020202020202E6
:1004000002020303030303030303040404040404B8
:10041000040505050505060606060607070707077E
:1004200008080808090909090A0A0A0B0B0B0C0C31
:100430000C0D0D0D0E0E0E0F0F0F101011111112CD
:100440001213131414151516161717181819191A4C
:100450001A1B1B1C1D1D1E1E1F20202122222324AF
:1004600024252626272829292A2B2C2D2D2E2F30EE
:10047000313232333435363738393A3B3C3D3E3F02
:10048000404142434445464748494A4C4D4E4F50EF
:10049000515354555658595A5B5D5E5F61626465AD
:1004A0006668696B6C6D6F7072737577787A7B7D37
:1004B0007E8082838587888A8C8E8F91939596988B
:1004C0009A9C9EA0A2A3A5A7A9ABADAFB1B3B5B7A7
:1004D000BABCBEC0C2C4C6C9CBCDCFD1D4D6D8DB7E
:1004E000DDDFE2E4E7E9EBEEF0F3F5F8FAFDFF100B
:1004F0000363006F006F006C0038003400340000AC
:10050000000A036D002E006B00690000000403095F
:100510000409025B00030100A0FA090400000103C2
:10052000010100092111010001224000070581039A
:1005300008000A090401000203000000092111015A
:1005400000012222000705820320000107050303A2
:10055000200001090402000103000000092111012B
:1005600000012281000705840320000A1201100106
:1005700000000008EDFE000001000102000106601D
:10058000FF0961A1010962150026FF009520750889
:1005900081020963150026FF00952075089102C0AD
:1005A00005010902A10185020901A100050919013E
:1005B0002905150025019505750181029501750331
:1005C00081010501093009311581257F95027508E2
:1005D000810609381581257F950175088106050C6E
:1005E0000A38021581257F950175088106C0C0056E
:1005F000010980A101850319012AB700150126B759
:1006000000950175108100C0050C0901A101850448
:1006100019012AA002150126A0029501751081007A
:10062000C005010906A101050719E029E715002504
:100630000195087501810295017508810105071969
:100640000029FF150026FF009506750881000508A2
:10065000190129059505750191029501750391010F
:10066000C00011241FBECFEFDAE0DEBFCDBF04B65D
:1006700003FE27C08091290390912A03A0912B03A8
:10068000B0912C038730904BA740B04BD1F410921F
:10069000290310922A0310922B0310922C0314BEEC
:1006A00084B7877F84BF0FB6F894A89580916000C7
:1006B000886180936000109260000FBEE0E0F8E374
:1006C000099511E0A0E0B1E0E2EFF4E602C0059088
:1006D0000D92A83DB107D9F723E0A8EDB1E001C024
:1006E0001D92A932B207E1F70E94FF270C947732DE
:1006F0000C94000089322DE5920721F08A329D4545
:1007000041F00FC0FB018281882359F089E991E013
:1007100006C0FB018281882321F088E891E00E94D5
:10072000060581E0089581E008950C947A03089508
:100730000C9497031F93CF93DF9300D000D01F92A8
:10074000CDB7DEB749835A836B8330914C028981E0
:100750009A81311114C0662359F0222349F00E9476
:100760005C20182F682F89819A810E94052003C080
:100770000E943020182F69817A81812F04C00E9445
:100780005C2069817A810F900F900F900F900F90ED
:10079000DF91CF911F910C949513FC01262F40817E
:1007A00051816281738184810C949A03CF93DF938A
:1007B000EC0160E00E94CD03BE01DF91CF910C946B
:1007C0009803FF920F931F93CF93DF93E82FF0E0EE
:1007D000EB5CFC4FF490C82FC695C695C695D0E04B
:1007E000FE01EB53FC4F0491877010E0082E02C00D
:1007F000159507950A94E2F701701127FE01EB5455
:10080000FC4FC491D0E002C0D595C7958A95E2F718
:10081000C170DD270115110519F081EE0E94E21764
:10082000209719F086EE0E94E2178F2D0E94F4188F
:10083000CD2B19F086EE0E948C18012B41F081EE31
:10084000DF91CF911F910F91FF900C948C18DF9145
:10085000CF911F910F91FF900895EF92FF920F9308
:100860001F93CF93DF93EC01162F0AE08881882332
:1008700009F455C0813009F043C08981813041F4C9
:100880007E0182E0E80EF11C8A810E94F41809C002
:10089000823049F47E01E2E0EE0EF11C8A810E9472
:1008A000E217E7012FC0833041F47E01F2E0EF0E42
:1008B000F11C8A810E948C18F4CF843011F02196AB
:1008C00021C02A81229680E090E030E02053310957
:1008D0002A30310558F4089FA001099F500D1124BA
:1008E000C901840F951F21962881EFCF009751F001
:1008F000EFE9FFE03197F1F700C000000197F6CF74
:100900000E94E1032196812F882309F4AFCFEFE9FC
:10091000FFE03197F1F700C000008150F5CFDF9183
:10092000CF911F910F91FF90EF90089560E00C948C
:100930002D04EF92FF920F931F93CF93DF938C01BF
:10094000F62E8AE0E82EF8018491882309F457C036
:10095000813009F042C0E8012196FE018491813086
:1009600031F42196FE0184910E94F41839C082303E
:1009700039F4E8012296FE0184910E94E21730C00A
:10098000833039F4E8012296FE0184910E948C188C
:1009900027C0843029F5E8012296FE01249180E0E9
:1009A00090E030E0205331092A30310560F4E89EB0
:1009B000A001E99E500D1124C901840F951F2196B5
:1009C000FE012491EECF009759F0EFE9FFE0319757
:1009D000F1F700C000000197F6CF0E94E103E801A3
:1009E0008E010F5F1F4F8F2D882309F4ACCFEFE9E5
:1009F000FFE03197F1F700C000008150F5CFDF91A3
:100A0000CF911F910F91FF90EF90089560E00C94AB
:100A100099048F929F92AF92BF92CF92DF92EF9202
:100A2000FF920F931F936B017C0181E090E0A0E0A7
:100A3000B0E04C015D0104C0880C991CAA1CBB1CD1
:100A40004A95D2F7AC01BD0104C0440F551F661F83
:100A5000771F2A95D2F7482959296A297B2904C08A
:100A6000880F991FAA1FBB1F0A95D2F78A019B0105
:100A70000C211D212E213F214017510762077307CA
:100A800039F4BC01CD016C297D298E299F290AC02A
:100A900080959095A095B095BC01CD016C217D21EC
:100AA0008E219F211F910F91FF90EF90DF90CF90AB
:100AB000BF90AF909F908F9008950F93382F262F5F
:100AC0006091A3027091A4028091A5029091A60268
:100AD000042F432F0E9409050F910C94411F0E947F
:100AE00083230E948721811102C00E942E220C9430
:100AF000D2070C94CE0708950E948E1B0E947B059E
:100B00002FEF84E39CE0215080409040E1F700C04B
:100B100000000C945D230F931F93CF93DF93EC01A0
:100B200061E00E94CD038C01BE010E9473118823F5
:100B3000A9F1BE01C8010E949503882379F1BE0185
:100B4000C8010E94CA14882349F1BE01C8010E944D
:100B50001C15882319F1BE01C8010E94471688237D
:100B6000E9F0BE01C8010E947A108823B9F08A8199
:100B7000882369F001158CE5180731F00F3D1C45FD
:100B800031F40E942E220AC00E947C0507C0CE01CB
:100B9000DF91CF911F910F910C94930380E0DF912F
:100BA000CF911F910F91089508950C94D40581E081
:100BB00008950C94D705CF93C82F0E94D5058C2F8C
:100BC0000E94D905CF910895CF93DF930E9495138A
:100BD0000E94E606EC01811521E5920708F043C06A
:100BE000811540E5940708F08AC0883E910520F5FC
:100BF000803E910508F0E6C0883A910570F4853A88
:100C0000910508F074C08130910509F4DBC008F447
:100C1000D7C0049708F0D6C0D3C08F3B910508F029
:100C2000CFC0C85AD0E0CC0FDD1FC45DDE4F0990A5
:100C3000D881C02DD464C6C0C11580E2D80758F44D
:100C4000C11521E0D20708F0BDC0C03FD10508F4AE
:100C5000B7C0D065B7C0C11540E4D40708F4B0C030
:100C6000DF70D06AAFC0C11585E5D807A0F4C11503
:100C700024E5D20708F08AC0C11543E5D40708F07F
:100C80006FC0C11582E5D80708F054C0DC2FCC270F
:100C9000C16FD06A97C0C11529E5D207A0F4C1156C
:100CA00048E5D40708F077C0C11586E5D80708F0F5
:100CB00087C08C2F0E947A078F71C82FD0E0DC2F5D
:100CC000CC27D0627FC0C1152AE5D20708F468C0DE
:100CD000CE0190568115904208F072C08D2F8F7111
:100CE0000E947A07DD27D0628F71D82B6BC0C55A5E
:100CF000D0E0C65ADE4FC881D0E0D06463C074E053
:100D0000969587957A95E1F783709C2F937021E0F3
:100D100030E002C0220F331F9A95E2F73C68382B6F
:100D2000CF70C695C69580E2C89FE0011124C22B02
:100D3000D32B48C0CE018370992721E030E002C058
:100D4000220F331F8A95E2F78C2F8695869540E215
:100D5000849FC0011124E901C82BD92BDC6832C063
:100D6000CE018370992721E030E002C0220F331FAB
:100D70008A95E2F78C2F8695869540E2849FC00184
:100D80001124E901C82BD92BDA681CC0DC2FCC2731
:100D9000C46FD06A17C0DC2FCC27C06FD06A12C0D6
:100DA0008C2F8F700E947A0794E0D695C7959A95FC
:100DB000E1F7CF70D0E0DC2FCC27D069C82B02C080
:100DC000C0E0D0E0CE01DF91CF9108958238910547
:100DD00069F1B0F48133910509F46DC048F48932AA
:100DE000910509F463C08A32910509F469C0089538
:100DF0008533910509F455C089339105B9F00895FB
:100E0000833E910569F138F4803E9105B1F0823E50
:100E1000910509F10895863E9105A9F1873E910556
:100E2000B9F1843E910509F064C023C020911A03F2
:100E300020FD4FC021FD4DC0089580911A0380FD13
:100E400044C080911B0380FF44C080911A0384FD3D
:100E500042C083EE4DC080911A0382FF38C0F5CFA7
:100E600080911A0382FD33C080911B0380FD31C045
:100E7000ECCF80911B0381FF32C080911A0384FD67
:100E80002AC087EE35C080911A0383FF26C0F5CFB4
:100E900080911A0383FD21C080911B0381FD1FC037
:100EA000ECCF80911A0385FD1CC01DC080911A03F0
:100EB00085FD19C016C080911A0386FD16C017C0A3
:100EC00080911A0386FD13C010C089E311C082EE21
:100ED0000FC080EE0DC080E00BC086EE09C084EE2E
:100EE00007C089E205C085E303C08AE201C081E34F
:100EF00090E0089590911A0392FF0DC0282F287159
:100F0000283019F4877F846006C0282F247124308C
:100F100011F48B7F886093FF0DC0282F2871283132
:100F200019F4877E846106C0282F2471243111F4BE
:100F30008B7E886120911B0320FF0DC0382F3871F4
:100F4000383019F4877F816006C0382F3171313015
:100F500011F48E7F886021FF0DC0282F2871283161
:100F600019F4877E816106C0282F2171213111F487
:100F70008E7E886194FD877E0895E82FF0E0EE0F65
:100F8000FF1FE752FD4F808191810895089580EA07
:100F90008A95F1F7089508950C94CB070C94CC072B
:100FA0000C94CB070C94D007F894E82FE295EF70DF
:100FB000F0E031A1282F2F7081E090E001C0880F70
:100FC0002A95EAF7982F9095932391A392A1892BC4
:100FD00082A378940895CF93DF93CDE5D1E08991F2
:100FE0000E94D40781E0C936D807C9F781E30E947F
:100FF000D40783E30E94D40786E30E94D40782E3E8
:101000000E94D4071092D2021092D1021092DA02FA
:101010001092D9021092D4021092D3021092DC02E4
:101020001092DB021092D6021092D5021092DE02CC
:101030001092DD021092D8021092D7021092E002B4
:101040001092DF0284E00E94C208DF91CF910C94DD
:101050006F054F925F927F928F929F92AF92BF9255
:10106000CF92DF92EF92FF920F931F93CF93DF9374
:101070009DE5E92E91E0F92E00E010E0C0E0CC24DF
:10108000C394D12C39EDA32E32E0B32E4701D70102
:101090008C91F894E82FE295EF70F0E021A18F7029
:1010A000A60102C0440F551F8A95E2F7CA01922F8C
:1010B000982B91A392A18095892382A378940E9472
:1010C000C707A601002E02C0440F551F0A94E2F77D
:1010D000BA0160957095E1EDF2E089E6482E81E075
:1010E000582ED0E020813181D2017D902D01872DB5
:1010F00082958F7090E0DC0190968C9190E0B72DF6
:10110000BF7002C095958795BA95E2F780FD04C03F
:10111000C901842B952B03C0C90186239723281767
:10112000390719F091838083D1E03296AE16BF065D
:10113000C9F6EFEFEE1AFE0AD4018C910E94D40793
:10114000CD2B0F5F1F4F0C30110509F09FCF2C2FB7
:1011500044E069ED72E081ED92E00E94C3080E94D4
:1011600079058C2FDF91CF911F910F91FF90EF9018
:10117000DF90CF90BF90AF909F908F907F905F90C7
:101180004F9008950895FF920F931F93CF93DF938D
:10119000F82E092F162FD72FC42F222349F081E0D4
:1011A0008093DA010E9410239093D9018093D80193
:1011B0008091DA018823D9F08091D8019091D901EA
:1011C0000E942823069798F0EF2DF02FA12FBD2F16
:1011D00080E090E04C2F50E08417950734F4219183
:1011E00031912D933D930196F7CF1092DA01DF9163
:1011F000CF911F910F91FF900895EF92FF920F935F
:101200001F93CF93DF938B01682F11110AC04423E2
:1012100029F0E82FF0E0E151FC4F6491762F862F02
:1012200075C0212F30E0E82FF0E0442321F0E15198
:10123000FC4FE491F0E046E0049FC0011124CFEFA1
:10124000D0E0BE010E941F314BEA4603C001479F18
:10125000900D1124800F911D800F911D982F990FD3
:10126000890FAE01421B530B4E9FD0014F9FB00D13
:101270005E9FB00D11249B2F189FA0011124452FB4
:1012800055278E01041B150B0E9FA0010F9F500DBB
:101290001E9F500D11247E01E81AF108E29E800184
:1012A000E39E100DF29E100D1124212F3327C21B37
:1012B000D30BCE9F9001CF9F300DDE9F300D1124B8
:1012C00062307105A9F048F46115710569F061306B
:1012D0007105C9F48B2F752F0DC06430710581F035
:1012E00058F06630710579F47E2F8B2F932F0DC047
:1012F000832F7B2F9E2F09C08E2F7B2F952F05C00C
:101300008E2F732F02C07E2F852F692FDF91CF91F3
:101310001F910F91FF90EF90089541E00E94FD080A
:10132000089508950E948D090895CF93DF93762F35
:10133000E901682F842F0E949209798368838A8348
:10134000DF91CF9108958091E102282F269530E01A
:101350002115310519F48170826005C02B323105E9
:1013600024F0817084658093E102089588E090E024
:101370000C941832CF92DF92EF92FF926B017C01B6
:101380000E94A309B701A60188E090E0FF90EF90CA
:10139000DF90CF900C9436326091E1027091E202BE
:1013A0008091E3029091E4020C94BA09E1EEF2E03C
:1013B00083E0808311828FEF828383831482608134
:1013C0007181828193810C94BA098091E10280FF3E
:1013D00002C08695089580E008959091E5029330CB
:1013E00018F49F5F9093E502882351F06091E10229
:1013F0007091E2028091E3029091E4020C94BA09A8
:10140000089581E00C94ED099091E502992319F07B
:1014100091509093E502882351F06091E102709120
:10142000E2028091E3029091E4020C94BA090895DB
:1014300081E00C94040A8091E50208958093E5020E
:10144000662351F06091E1027091E2028091E30223
:101450009091E4020C94BA09089560E00C941E0A7D
:101460008091E20208958091E30208958091E40260
:10147000089570E00C94EB10609108018091E102F6
:1014800080FF0AC08091070123E0829FC0011124E0
:101490008A519D4F0C94390A8091090190910A015B
:1014A000891780F7E82FF0E09F01220F331FE20F2A
:1014B000F31FEA51FD4F1182108212828F5FF0CF2D
:1014C0009091E10290FF16C09091090120910A01CC
:1014D000921770F4E92FF0E0DF01AA0FBB1FEA0FAB
:1014E000FB1FEA51FD4F8183608342839F5FF0CFF2
:1014F0000C943C0A0895CF93DF9300D01F92CDB790
:10150000DEB79091E10290FF0AC09E012F5F3F4F2E
:101510000E9495094B8169818A810E94600A0F901F
:101520000F900F90DF91CF910895CF93DF93EC014F
:101530006C8170E080E090E00E94142F20E030E0A9
:101540004FE753E40E94372E2BED3FE049E450E48F
:101550000E943D300E94AA300E94B12E2BE43AE353
:101560004EE25FE30E94CA2D20EF3BEF48ED52E4CC
:101570000E943D300E94E32E462FE1EEF2E06281B0
:1015800081810E947B0A8C818F5F8C83DF91CF9158
:101590000895CF93DF93EC01E1EEF2E043816281A5
:1015A0008C810E947B0A8C818F5F8C83DF91CF912D
:1015B00008950F931F93CF93DF9300D01F92CDB761
:1015C000DEB78C018091DB0181110AC09E012F5F83
:1015D0003F4F4FEF6FEF0E9495098A818093DB01A7
:1015E000F8018481813051F028F0823061F440911B
:1015F000DB010AC08091DB0140E007C06091DB01A4
:1016000040E080E003C040E080E060E00E94600ACB
:10161000F801848190E0019663E070E00E9433312C
:1016200084830F900F900F90DF91CF911F910F91B6
:101630000895AF92BF92CF92DF92EF92FF920F93F5
:101640001F93CF93DF9300D01F92CDB7DEB7182F33
:10165000F62E042FE22E9091E10290FF6DC0E92F4B
:10166000E695AE2FB0E0A359BE4F8C918093370220
:101670009E7F923061F49E012F5F3F4F812F0E9429
:1016800095094B8169818A810E94600A43C082303A
:1016900019F40091E4023EC0863019F41091E20280
:1016A00039C08930D9F38931A9F5E9518E2F81707C
:1016B000D82EE695F0E0E651FC4FA590B490C12CF1
:1016C000BB2460910B01C61618F52C2D30E0A29EAC
:1016D000C001A39E900DB29E900D112470E00E9457
:1016E0001F31812FD11002C0860F01C0861B90913F
:1016F0000901290F311DA901440F551F240F351F62
:101700002A513D4F402F6F2D0E949509C394D9CF88
:101710000E943C0A1093E202F092E3020093E4027A
:10172000EE2051F06091E1027091E2028091E302BB
:101730009091E4020E94BA090F900F900F90DF91F0
:10174000CF911F910F91FF90EF90DF90CF90BF90BE
:10175000AF900895E1EEF2E09181282F43816281FC
:1017600080E1890F0C94190B81E00C94AA0BE1EE37
:10177000F2E09181282F4381628180EF890F0C94E0
:10178000190B81E00C94B70BE1EEF2E0628120E1ED
:10179000620F08F46FEF282F438181810C94190B9D
:1017A00081E00C94C40BE1EEF2E0628120E1621B67
:1017B00008F460E0282F438181810C94190B81E0AB
:1017C0000C94D30BE1EEF2E0438120E1420F08F4E8
:1017D0004FEF282F628181810C94190B81E00C94CA
:1017E000E20BE1EEF2E0438120E1421B08F440E02D
:1017F000282F628181810C94190B81E00C94F10BEC
:1018000020E00C94190BFF920F931F93CF93DF935B
:10181000EC01F12C0FEF10E060910B01F616F0F4E3
:10182000809109012F2D30E0280F311DC901880F4B
:10183000991F280F391F2A513D4F70E0C8010E949F
:101840003331962F8C814091E4026091E302F99E3E
:10185000800D11240E949509F394DECF0E943C0A6A
:101860009A818C8190FF02C08F5F01C081508C8370
:10187000DF91CF911F910F91FF900895BF92CF926A
:10188000DF92EF92FF920F931F93CF93DF93FC01B0
:10189000828180FF02C00FEF01C001E010E0809163
:1018A0000B01181708F040C080910901C12ED12CFE
:1018B000E601C80FD11DCE01880F991FC80FD91F8F
:1018C000CA51DD4F198218821A8234E0E32EF12CBE
:1018D000B12C8091DD018B0D813114F08F7005C02A
:1018E00087FF03C090910B01890F082E000C990B04
:1018F000C816D90691F48091E4028E9DA0018F9DB7
:10190000500D112455954795559547959E01609129
:10191000E3028091E2020E949509B00EF1E0EF1A15
:10192000F108B9F61F5FBBCF0E943C0A8091DD0130
:10193000013031F4811102C080910B01815007C048
:1019400090E0019660910B0170E00E94333180932A
:10195000DD01DF91CF911F910F91FF90EF90DF900C
:10196000CF90BF900895CF938091090190910A0183
:10197000891770F4E82FF0E09F01220F331FE20F68
:10198000F31FEA51FD4F1182108212828F5FF0CF58
:10199000C0E060910B01C617C0F5EC2FF0E070E0DD
:1019A000CF010E94333120910901820F2091DC0187
:1019B000022E000C330B90E0E217F307CCF02091DD
:1019C0000601022E000C330B2E173F078CF09C01F2
:1019D000220F331F820F931F9C012A513D4F4091CC
:1019E000E4026091E3028091E2020E9495090BC03B
:1019F000FC01EE0FFF1F8E0F9F1FFC01EA51FD4FF0
:101A0000118210821282CF5FC4CF0E943C0A2091C3
:101A100005018091DC01820F8093DC019091060129
:101A2000920F9093060119165CF4082E000C990B86
:101A300040910B0150E041505109841795071CF06B
:101A4000219520930501CF9108958F929F92AF9297
:101A5000BF92CF92DF92EF92FF920F931F93CF939B
:101A6000DF938C01FC014481C42FD0E09E01DE0194
:101A70000E947E319B01AC010E9494316B017C017C
:101A8000E0E2F0E0EC1BFD0BA5E5B0E09B01AC0152
:101A90000E9494314B015C019F01DF010E9476316D
:101AA0009B01AC010E949F319B01AC012C0D3D1D9F
:101AB0004E1D5F1DC501B4010E944731C22FD22FB8
:101AC0002A3228F4F3E02F9F900111240DC025E560
:101AD00030E02C1B3109C901880F991F280F391FCD
:101AE00037FF02C02F5F3F4F35952795C22FC09516
:101AF000F12C85E5E82EED1A80910B01F816C8F45B
:101B0000F1FC02C08E2D01C08D2F909109012F2D67
:101B100030E0290F311DA901440F551F240F351F37
:101B20002A513D4F4C2F6091E3020E949509F39496
:101B3000E3CF0E943C0AF8018481811102C091E048
:101B400003C0803219F49FEF909304019091040137
:101B5000890FF8018483DF91CF911F910F91FF903E
:101B6000EF90DF90CF90BF90AF909F908F900895AF
:101B70000F931F93CF93DF93EC0100E010E080916F
:101B80000B01282F30E00217130724F5909109016B
:101B90009801290F311DA901440F551F240F351F2E
:101BA0002A513D4F869590E04C81081719071CF487
:101BB000442331F002C0411103C04091E40201C04E
:101BC00040E06091E3028091E2020E9495090F5F7C
:101BD0001F4FD5CF0E943C0A8C8190E00196817006
:101BE00099278C83DF91CF911F910F9108958F9248
:101BF0009F92AF92BF92CF92DF92EF92FF920F939C
:101C00001F93CF93DF93FC01B280948081E08483A3
:101C100000E015E05BE4A52E88248394EE24EA948A
:101C2000F12C7BE4C72ED12C80910B01081708F012
:101C30008FC0C02FD0E01C9FF0011D9FF00D11241C
:101C4000E252FE4F911003C01382128267C02381BB
:101C5000222389F1215023833481332319F09A2DD3
:101C6000921B01C0922F8091E4021C9FF0011D9FE6
:101C7000F00D1124E252FE4F899FC0011124B601DC
:101C80000E941F316283211104C0332311F014829A
:101C9000A38222E02B1508F441C01C9FF0011D9F78
:101CA000F00D1124E252FE4F8091E2028083809178
:101CB000E302818333C00E94F3318230914074F596
:101CC00082E08B1530F40E94F331B7010E9433316A
:101CD00002C08091E2021C9FF0011D9FF00D1124B3
:101CE000E252FE4F808322E02B1558F40E94F3311C
:101CF0002091E3022695622F70E00E943331820F1B
:101D000002C08091E3021C9FF0011D9FF00D112481
:101D1000E252FE4F81831282A38284828091090164
:101D20009E01280F311DC901880F991F280F391FE7
:101D30002A513D4F1C9FF0011D9FF00D1124E252CE
:101D4000FE4F4281618180810E9495090F5F6CCFB7
:101D5000DF91CF911F910F91FF90EF90DF90CF9087
:101D6000BF90AF909F908F900C943C0AE1EEF2E010
:101D700080818E7F808360817181828193810E94C6
:101D8000BA09109238022FEF80E792E0215080408C
:101D90009040E1F700C000000C943C0AE1EEF2E054
:101DA00080818E7F8083109238022FEF80E792E04F
:101DB000215080409040E1F700C000000C943C0AA4
:101DC000109238028091350281110AC081E080931F
:101DD00035028091E1028170809334020C94CE0E22
:101DE00008956091E102669570E04BE050E08CE070
:101DF00091E00E940332892B19F481E0809338022C
:101E00000E94102390932F0280932E0208959091A8
:101E1000E10290FF35C09170811102C0926006C04E
:101E20008B3210F0946502C0880F982B9093E102DA
:101E3000662351F06091E1027091E2028091E30229
:101E40009091E4020E94BA096091E102669570E007
:101E50004BE050E08CE091E00E940332892B19F0B6
:101E60001092380202C00E94F10E81E0809331028C
:101E70004091E4026091E3028091E2020C94000C34
:101E80000895682F9091E102969581E0890F8B3239
:101E900008F081E00C94070F81E00C94410F682F4B
:101EA0009091E10296958FEF890F09F48AE20C94E4
:101EB000070F81E00C944F0F61E00C94070FE1EEE7
:101EC000F2E080818160808386950C945C0F809124
:101ED000E10280FD0C94B60E0C945F0F60E00C9450
:101EE000070F8091360281112EC00E948721811137
:101EF00004C00E942E220E94D6090E94B609609357
:101F0000E1027093E2028093E3029093E4026E7F19
:101F100061F40E94D6090E94B6096093E1027093B1
:101F2000E2028093E3029093E4020E94A3091092DC
:101F300038028091E10280FF03C086950E946E0FF7
:101F400081E0809336020895E1EEF2E080818160C5
:101F5000808386950C946E0F109235028091340226
:101F600081110E94A40F0C94F10E0F931F93CF9335
:101F7000DF9380913802882309F49CC08091370256
:101F8000E091E102E695E81BE0933002823049F4EB
:101F9000F0E0EA51FC4FE491CE2FD0E005E91AE0E1
:101FA00059C0863049F4F0E0ED51FC4FE491CE2F5A
:101FB000D0E009EC1AE04EC0893051F4E695F0E02B
:101FC000E052FC4FE491CE2FD0E003E01CE042C091
:101FD0008F3051F4E695F0E0E352FC4FE491CE2FC0
:101FE000D0E00EE31CE036C0853149F4F0E0E65263
:101FF000FC4FE491CE2FD0E003EB1CE02BC08831E6
:10200000D9F0833239F4E8EDF3E0C591D49109EDCC
:102010001AE020C08432A9F08532C1F48E2F63E02B
:102020000E941331E92FF0E0EB52FC4FE491CE2FE8
:10203000D0E007EF1DE00EC0C8E2D0E005E21DE0F1
:1020400009C0C4EFD1E008EB1DE004C0C0EDD7E04B
:1020500001E919E080913102882389F01092310260
:102060000E9410239E0120953095820F931F90931C
:102070002F0280932E02109233021092320280912E
:102080002E0290912F020E9428238C179D0790F01A
:10209000E0912E02F0912F02CE0FDF1FD0932F027E
:1020A000C0932E028EE292E0F801DF91CF911F9152
:1020B0000F910994DF91CF911F910F91089588237B
:1020C00011F0FA0101C0FB010994CF93DF93C82FEF
:1020D000D62F0E94E5098C1740F00E94E5098D1764
:1020E00020F4DF91CF910C944C0F8C2FDF91CF9186
:1020F0000C945C0F0F931F93CF93FB01C281CC23F1
:1021000009F463C08C010E94DD208272F801E35C57
:10211000FC45E431F10508F059C0EA5AFF4F0C9430
:1021200069310E94670F06C049E55FE06CE47FE01B
:102130000E945F10C0E04AC04CE45FE069E57FE0C8
:10214000F7CF41EC5BE064EB7BE0F2CF44EB5BE08C
:1021500061EC7BE0EDCF4FED5BE060ED7BE0E8CF45
:1021600040ED5BE06FED7BE0E3CF4DEF5BE06EEECB
:102170007BE0DECF4EEE5BE06DEF7BE0D9CF48E158
:102180005AE061E07AE0D4CF41E05AE068E17AE0D9
:10219000CFCF81E017C065E082E010C068E086E044
:1021A0000DC06EE089E00AC064E18FE007C067E11E
:1021B00085E104C088E106C062E289E10E94651001
:1021C000B9CF83E20E945C0FB5CFC1E08C2FCF91D5
:1021D0001F910F910895539A2BB1277F3BB138601F
:1021E0004FB7F894FC01CB01880F991F680F791F36
:1021F0006E0F7F1FE617F70789F0819198E03BB9D2
:10220000000000C087FF2BB9880F000000C000C08D
:1022100000C02BB900C09A9591F7ECCF4FBF8FE566
:1022200094E00197F1F700C00000089582E290E089
:102230000E941032813281F483E290E00E941032D9
:10224000833051F484E290E00E94103291E08032B9
:1022500009F090E0892F01C080E081700895CF934C
:10226000C82F811102C06FEF01C061E282E290E0ED
:102270000E942432C11102C06FEF01C063E083E20B
:1022800090E00E942432C11102C06FEF01C060E2F1
:1022900084E290E0CF910C94243280E00E942F11D0
:1022A0000C948121089585E290E00E941032682FFD
:1022B00070E080E090E0089585E290E00C94243294
:1022C0000E9452110E94161181110CC060E070E052
:1022D000CB010E945C110E9410130E94EF1381E059
:1022E0000C942F110895CF93FB01C281CC23E9F008
:1022F0009C0122513F452031310520F482510E943A
:10230000FF130CC08031FFE59F0751F481E00E946C
:10231000671F43E062E081E00E945D05C0E018C0F5
:1023200081319F45A9F482E0F2CF8031EFE59E072D
:1023300011F481E004C081319F4549F482E00E949C
:10234000881F43E062E081E00E945D0501C0C1E0BA
:102350008C2FCF9108952FEFFC0120830895CF9308
:10236000DF93EC018881813889F028F48038A1F46A
:102370000E94360A10C0823861F0833869F40E94E6
:10238000300A89830E94330A8A8306C00E94E509C5
:1023900002C00E941B0A8983DF91CF910895CF93D9
:1023A000DF93EC0188818138B1F058F4803851F521
:1023B000D9810E94330AC82F0E94300A4D2F6C2FFA
:1023C0001DC08238B1F08338E9F40E94360A482FE4
:1023D0006A81898113C089810E946E0F8981811170
:1023E00004C0DF91CF910C94CE0EDF91CF910C946D
:1023F000A40F8981DF91CF910C942D0ADF91CF91A9
:102400000C94000CDF91CF910895EF92FF920F93FF
:102410001F93CF93DF93EC01162F0196E8814E2F87
:1024200050E0FA013197E331F10508F0ACC0E6590C
:10243000FF4F0C946931198289E056C0898182303E
:1024400039F0833061F0813029F50E941C2302C0ED
:102450000E9453119A838B837C836D8396C07E0187
:1024600000E0802F0E94BD07F701928383830F5FF6
:10247000F2E0EF0EF11C0430A1F787C089818230B1
:1024800049F46A817B818C819D810E946F310E9419
:102490005C117BC0612FCE010E94AB1176C04B81D5
:1024A0006A8189810E94E2129C838D836EC02C8197
:1024B0003D813227232732274B816A8189810E94FF
:1024C000FB1263C00E94101360C00E94CF115DC058
:1024D0000E94AF115AC00E94CC0957C00E94A2139B
:1024E00024C00E94A41399838A834FC06B8170E03B
:1024F00089819A81AE014C5F5F4F98278927982781
:102500000E94A71342C06B8170E089819A81AE015D
:102510004C5F5F4F9827892798270E94CC1335C0BE
:102520000E94EF1332C00E94CF1289832EC06B81AC
:1025300070E089819A81AE014C5F5F4F98278927AF
:1025400098270E944F1321C06B8170E089819A8186
:10255000AE014C5F5F4F9827892798270E9473131D
:1025600014C00E944D1111C0CE010E94EF262FEF22
:1025700081EE94E0215080409040E1F700C00000DF
:102580000E945D2302C08FEF8883612FCE01DF910F
:10259000CF911F910F91FF90EF900C94EF2684E064
:1025A000089550E0440F551F28E1629F400D511DD2
:1025B00011249A0160E6869F200D311D1124C90166
:1025C000869608950F931F93CF93DF930E94D112A5
:1025D0008C010E941032C82FD0E0DC2FCC27C8011C
:1025E00001960E9410329E01282BC901DF91CF91E4
:1025F0001F910F9108950F931F93CF93DF93122F85
:10260000032F0E94D112EC01602F0E942432612F0F
:10261000CE010196DF91CF911F910F910C9424323E
:10262000AF92BF92CF92DF92EF92FF920F931F93E0
:10263000CF93DF93A12CE12CF12CB12C00E010E022
:10264000C0E0D0E06701C00ED11EFE01EE0FFF1FFB
:10265000EC0DFD1DEB54FE4F259134914C2F6B2D4D
:102660008A2D0E94FB122196CC30D10571F7085EAD
:102670001F4FB39484E0B812E3CF80E6E80EF11C5C
:10268000A39484E0A812D9CFDF91CF911F910F912D
:10269000FF90EF90DF90CF90BF90AF900895EF92B2
:1026A000FF920F931F93CF93DF93EA017A01E60E17
:1026B000F71E8C01C8018696CE15DF0569F000383B
:1026C00021E0120720F40E941032888301C0188292
:1026D00021960F5F1F4FEECFDF91CF911F910F918A
:1026E000FF90EF900895EF92FF920F931F93CF9377
:1026F000DF93EA017A01E60EF71E8C01C801869687
:10270000CE15DF0559F0003821E0120718F4688172
:102710000E94243221960F5F1F4FF0CFDF91CF919F
:102720001F910F91FF90EF900895462F843038F459
:10273000743028F46C3018F4672F0C94E21280E0A7
:1027400090E0089580E108958AE592E00895EF927F
:10275000FF920F931F93CF93DF93EA017A01E60E66
:10276000F71E8C01C8018A559E4FCE15DF0569F012
:102770000A3522E0120720F40E941032888301C03B
:10278000188221960F5F1F4FEDCFDF91CF911F91E0
:102790000F91FF90EF900895EF92FF920F931F9388
:1027A000CF93DF93EA017A01E60EF71E8C01C80190
:1027B0008A559E4FCE15DF0559F00A3522E01207E3
:1027C00018F468810E94243221960F5F1F4FEFCFCB
:1027D000DF91CF911F910F91FF90EF900895CF93CC
:1027E000DF93C6EAD1E060E0CE010E942432219658
:1027F000C11584E0D807B9F7DF91CF910895DF9232
:10280000EF92FF920F931F93CF93DF9300D000D0EE
:10281000CDB7DEB7F82E8FE08F15E8F18FEF93E09C
:102820000E941032811137C006EA11E0FF2069F0E2
:10283000011584E0180779F1C8010E941032811156
:1028400001C0FA940F5F1F4FF1CF19821A821B82C9
:102850001C82DD24D39478018FEFE81AF80AC801AE
:102860000E94103289831A828823A9F09FEF980F63
:10287000933058F48A83D9820E5F1F4FC7010E949C
:1028800010328B83882339F07801CE0101960E94A3
:1028900096048701E0CF0F900F900F900F90DF917B
:1028A000CF911F910F91FF90EF90DF9008950F93BC
:1028B0001F93CF93DF93C42FD22FFC0182818823F3
:1028C000C9F040933B020E94102390933A028093F8
:1028D000390280E28C0F883008F057C0C77081E061
:1028E00001C0880FCA95EAF7DF91CF911F910F9130
:1028F0000C94071980913B02481330C08091390233
:1029000090913A020E942823883C910538F510E204
:102910001D0FCD17B9F080E28C0F883040F4C770DE
:1029200081E001C0880FCA95EAF70E940E1918309D
:1029300028F581E09D2F977001C0880F9A95EAF7DE
:102940000E940719802F0E94F4181830F0F4D770F5
:1029500081E001C0880FDA95EAF70AC080E28C0FA7
:10296000883098F4C77081E001C0880FCA95EAF7F3
:10297000DF91CF911F910F910C940E19802FDF9151
:10298000CF911F910F910C94F418DF91CF911F916B
:102990000F9108950F939C01CB01243F4CE5340720
:1029A00031F188F4293DFCE53F07D9F02A3D4CE59B
:1029B000340779F1283D3C45A9F506E221EE41EEC8
:1029C00068ED7CE52BC0263FFCE53F07E1F0A8F071
:1029D000273F3C4539F507E225EE46EE67EF7CE5FB
:1029E0001DC007E225EE45EE69ED7CE517C006E265
:1029F00021EE40EE64EF7CE511C007E225EE44EEE7
:102A000065EF7CE50BC006E221EE42EE66EF7CE569
:102A100005C008E221E045EE6AED7CE50E9457140E
:102A200080E008C0FC018281882319F010923B02EB
:102A300001C081E00F910895CF93DF93EC01FB017A
:102A40008281882309F41FC1C230FCE5DF0708F446
:102A50001BC1C6319CE5D90738F09E012B5F3C4570
:102A60002930310508F010C10E949A2190931B0370
:102A700080931A03C031ECE5DE0709F4C3C008F007
:102A800041C0C8308CE5D80709F49AC0F0F4C430CE
:102A9000ECE5DE0709F487C068F4C2308CE5D8079E
:102AA00009F477C0C330DC4509F0E3C080911A0314
:102AB000826076C0C630ECE5DE0709F46EC008F02F
:102AC0007BC080911A0388606BC0CC308CE5D8073E
:102AD00009F485C068F4CA30ECE5DE0709F474C077
:102AE00008F079C00E948E1B80911A03806858C03C
:102AF000CE308CE5D80709F476C008F07FC080910D
:102B00001A038BC0CC3FECE5DE0709F44FC018F583
:102B1000C3318CE5D80709F47DC078F4C131ECE508
:102B2000DE0709F473C0C231DC4509F0A2C00E947F
:102B30008E1B80911A038F7733C0C5318CE5D8077F
:102B400009F472C008F486C0CB3FDC4509F091C09F
:102B500080911B033EC0C115FDE5DF0709F45FC08E
:102B600058F4CE3F9CE5D90709F444C008F43FC0AF
:102B700080911B0382602DC0C230FDE5DF0709F4A0
:102B800075C008F45DC0C330DD4509F072C080E057
:102B90006EC080911A03816003C080911A03806126
:102BA00080931A0366C080911A0311C080911B03A1
:102BB000826080931B035DC080911A038062F0CF16
:102BC00080911A038064ECCF80911A03886084603E
:102BD000E7CF8160EECF80911A038E7FE1CF8091A5
:102BE0001A038D7FDDCF80911A03877FD9CF809123
:102BF0001B0318C080911B038D7FDBCF80911A03CC
:102C00008F7ECECF80911A038F7DCACF80911A0319
:102C10008F7BC6CF80911A03877F8B7FC1CF809136
:102C20001B038D7F8E7FC5CF80911A0382FB2227E5
:102C300020F991E0922790FB82F990FB83F9B0CFC5
:102C400080911B03982F909591708E7F892B90FB1C
:102C500081F9AFCF0E948E1B80911A0387FB222738
:102C600020F991E0922790FB87F99ACF81E00E94AA
:102C7000302280911A0390911B030E94AB210E9485
:102C80008E1B80E001C081E0DF91CF910895CF934A
:102C9000DF9386319C4541F5EB010E94DD20982FA2
:102CA0008A812091170130911801882379F09A7A4E
:102CB00081E009F480E080933C02911102C069E256
:102CC00001C065E3C9010E9477220AC080913C02DD
:102CD000811102C069E201C065E3C9010E94792245
:102CE0000E941E2180E001C081E0DF91CF91089514
:102CF00090934202809341020895E0914102F09145
:102D00004202309721F00190F081E02D099480E09B
:102D10000895E0914102F0914202309721F0028043
:102D2000F381E02D09940895E0914102F09142026F
:102D3000309739F022E0DC012C930480F581E02DFE
:102D40000994089520913F023091400228173907D5
:102D500071F09093400280933F02E0914102F09124
:102D60004202309721F00680F781E02D0994089502
:102D700020913D0230913E022817390771F090935F
:102D80003E0280933D02E0914102F0914202309771
:102D900021F00084F185E02D0994089585B78068BD
:102DA00085BF85B7806885BF089581E008950C943C
:102DB000D51608950C94D9160C94D9160C94DC16DB
:102DC0000C94D9160C94E0160C94D9160E94CE16C9
:102DD0000E94E4160C94E2160E9407230E94EB075F
:102DE0000E9460110E9497230E94710F0C94DE16BE
:102DF0007F928F929F92AF92BF92CF92DF92EF928B
:102E0000FF920F931F93CF93DF93CDB7DEB72A972F
:102E10000FB6F894DEBF0FBECDBF0E94DA160E9437
:102E2000D9160E9429080E94D716811111C08FEF70
:102E300089838A831B820E9410238160782F9D835F
:102E40008C8349815A816B818D810E94AE174FC05E
:102E500044E4A42E42E0B42E00E010E0702E802F57
:102E60000E94BD076C01F501819091905F01882659
:102E700099268114910431F40F5F1F4F043011051E
:102E800069F7D5CF8091B80281FD0E94C60780E026
:102E9000EE24E394F12C94012E213F21232B09F100
:102EA0008E837F82CE20DF2081E0CD2809F480E070
:102EB00088870E9410238160782F9A8789874E81A6
:102EC0005F8168858A850E94AE17000F111FF80187
:102ED000EC5BFD4F80819181E826F926F182E0824A
:102EE00006C08F5FEE0CFF1C8C30A9F6C5CF0E9488
:102EF000B50F0E9446250E947D16909143028917C6
:102F0000C9F00E947D16809343022A960FB6F8946A
:102F1000DEBF0FBECDBFDF91CF911F910F91FF900C
:102F2000EF90DF90CF90BF90AF909F908F907F9069
:102F30000C94DB052A960FB6F894DEBF0FBECDBF0A
:102F4000DF91CF911F910F91FF90EF90DF90CF9085
:102F5000BF90AF909F908F907F900895CF93DF9315
:102F6000CDB7DEB72B970FB6F894DEBF0FBECDBF3F
:102F70004F83588769877A878B87DE01119686E0B1
:102F8000FD0111928A95E9F785E0FE0137960190DF
:102F90000D928A95E1F749815A816B817C818D81FF
:102FA0009E810E94471E2B960FB6F894DEBF0FBE7F
:102FB000CDBFDF91CF910895FC01808191810E9466
:102FC0009E200895CF93882309F4A4C0C82F823887
:102FD000C1F40E947D1681FD9DC069E380911701B7
:102FE000909118010E9477220E941E212FEF81EEFE
:102FF00094E0215080409040E1F700C0000069E378
:1030000019C0833801F50E947D1680FD83C063E5F9
:1030100080911701909118010E9477220E941E2131
:103020002FEF81EE94E0215080409040E1F700C006
:10303000000063E580911701909118010E947922A8
:10304000CF910C941E218438C1F40E947D1682FD1C
:1030500061C067E480911701909118010E94772266
:103060000E941E212FEF81EE94E02150804090407D
:10307000E1F700C0000067E4DDCF8CEF8C0F813AF0
:10308000D0F46C2F80911701909118010E94412279
:10309000882349F06C2F80911701909118010E94AC
:1030A00079220E941E216C2F8091170190911801A6
:1030B0000E947722C5CF80E28C0F883048F4C77019
:1030C00081E001C0880FCA95EAF70E94E020B8CFDE
:1030D000EBE5EC0FE33040F4F0E0EA53FE4F808183
:1030E00090E0CF910C94A216E8E5EC0FE73150F494
:1030F000F0E0EE0FFF1FE856FE4F80819181CF91E7
:103100000C94B816C03F30F08C2F0E943B24CF9116
:103110000C942825CF910895882309F464C082383F
:1031200079F40E947D1681FF5EC069E380911701EA
:10313000909118010E9477220E941E2169E310C01D
:103140008338B1F40E947D1680FF4DC063E5809105
:103150001701909118010E9477220E941E2163E5B9
:1031600080911701909118010E9479220C941E21E0
:10317000843879F40E947D1682FF35C067E480911F
:103180001701909118010E9477220E941E2167E486
:10319000E7CF9CEF980F913A10F4682FE1CF90E2BF
:1031A000980F983050F4877091E001C0990F8A957C
:1031B000EAF7892F0E94E620D9CF9BE5980F93303C
:1031C00020F480E090E00C94A21698E5980F9731D7
:1031D00020F480E090E00C94B816803F20F00E942C
:1031E000A3240C9428250895CF93C82F0E94E2179A
:1031F000C93349F42FEF87EE93E02150804090408F
:10320000E1F700C000008C2FCF910C948C1888231C
:1032100021F00E94E0200C941E210895882321F0C3
:103220000E94E6200C941E210895CF92DF92EF9227
:10323000FF920F931F93CF93DF937C01D62FC72F5D
:10324000FC01058102950F70128111110E94FD2071
:103250000E94D620882399F0112389F08C2F807F3B
:10326000803421F080E28D0F883048F082E00E94A7
:1032700068210E94D62091E0D82ED92601C0D12CF9
:10328000CC2EC2948FE0C8228C2D90E08C3091051A
:1032900008F0B6C1FC01E358FF4F0C9469318C2F44
:1032A000807FCF70882311F0C295C07F112399F0E1
:1032B000CC2309F491C180E28D0F883010F0D11138
:1032C00004C08C2F0E94E02003C08C2F0E94F020AD
:1032D0000E941E2181C18D2F0E948C18CC2309F4DD
:1032E0008FC180E28D0F883010F0D11104C08C2F77
:1032F0000E94E62003C08C2F0E94F6200E941E210F
:103300007FC18C2F807FCF70803211F0C295C07F3B
:10331000DD2319F0D130C9F022C0112371F0002350
:1033200041F0013031F40E9403218C2B0E940B21CB
:1033300067C10E9403218C2B1DC0002319F00130AE
:1033400009F45EC10E94142125C0112321F006302A
:1033500008F056C10EC0053008F052C11BC0112341
:1033600061F0002331F0F701858180FF35C18F7056
:1033700085838C2F0E94071943C1002359F0D9334C
:1033800009F03BC1FFEF07EE13E0F15000401040A1
:10339000E1F731C18C2F0E940E1932C18C2F869516
:1033A0008695837019F0813061F02AC1112321F0D4
:1033B0008D2F9C2F937002C080E090E00E94A21697
:1033C00027C1112321F08D2F9C2F937002C080E024
:1033D00090E00E94B8161CC18D2F112319F00E9495
:1033E0003B2402C00E94A3240E94282511C18C2FD7
:1033F000837009F047C0111107C12D2F2295269522
:103400002770220F220F6D2F6F70862F90E0A0E0A3
:10341000B0E0022E04C0880F991FAA1FBB1F0A9498
:10342000D2F7D4FF10C04FE050E060E070E004C07D
:10343000440F551F661F771F2A95D2F74095509568
:103440006095709503C040E050E0BA01C695C695FE
:10345000C3708A019B01082B192B2A2B3B2BC90116
:10346000B801C23049F058F4C13019F00E941B1F56
:10347000CBC00E94091FC8C00E942D1FC5C00E945A
:10348000071FC2C0112319F08C2F817001C08695CF
:10349000882309F4B9C02D2F229526952770220F75
:1034A000220F6D2F6F70862F90E0A0E0B0E0022E0B
:1034B00004C0880F991FAA1FBB1F0A94D2F7D4FF1C
:1034C00010C04FE050E060E070E004C0440F551FB2
:1034D000661F771F2A95D2F7409550956095709595
:1034E00003C040E050E0BA01C695C695C3708A019A
:1034F0009B01082B192B2A2B3B2BC901B801C23089
:1035000049F058F4C13019F00E94E01F7DC00E94BC
:10351000CE1F7AC00E94F21F77C00E94411F74C064
:10352000CF70112339F08C2F0E94671F8D2F0E94BE
:1035300007196AC08D2F0E940E198C2F0E94881FB8
:1035400063C0D23F01F128F4D03F41F0D13FA1F058
:103550003FC0D33FF9F0D43F39F13AC0112341F0D5
:10356000053008F04DC08C2F8F710E94AD1F48C0F0
:10357000063008F045C0F7CF112339F08C2F8F713A
:103580000E94671F3DC01123C9F38C2F8F710E94C9
:10359000881F36C0112329F08C2F8F710E94521F73
:1035A0002FC00E944D1F2CC0112349F0CF718C2FCA
:1035B0000E94671F63E08C2F0E94532121C081E08D
:1035C0000E9468210230E0F082E00E94682118C069
:1035D000112331F0002391F28D2F0E94E21710C0C9
:1035E000002399F2D93349F41FEF27EE33E011504D
:1035F00020403040E1F700C000008D2F0E948C1861
:1036000088EF8C0D843020F40E947D160E94DB052B
:10361000DD20C9F00E94D22080FD15C0F701128282
:103620000E94CC200E94671FC7010E94441B0E9479
:10363000CC20DF91CF911F910F91FF90EF90DF9001
:10364000CF900C94881FDF91CF911F910F91FF9025
:10365000EF90DF90CF9008950F931F93CF93DF9358
:10366000EC01688179818A810E94A9208C010E94E5
:1036700004200E94F51EB801CE010E941519DF91A9
:10368000CF911F910F910895CF93DF93EC01988113
:1036900089812B813C81232B31F08F3F31F481E0F4
:1036A0009F3F19F403C081E001C080E080FD19C094
:1036B000CE010E948B0581110CC00E94D620882368
:1036C00081F08A81882369F082E0DF91CF910C94A8
:1036D0006821CE010E942C1BCE01DF91CF910C946A
:1036E000D603DF91CF9108950E94FD200E94002112
:1036F0000E941E210E9459260E94282580E090E009
:103700000E94A21680E090E00C94B81680911701F8
:10371000909118010E947B220C94741B0E94ED2052
:103720000C94861BE92FE295EF704E2F50E0FA01C2
:103730003297EE30F105B0F4E757FF4F0C94693142
:10374000803F91F018F4883E68F40EC0843F51F435
:103750000BC0883E48F0813F29F406C093FB8827C0
:1037600080F9089580E0089581E008950E949E20E8
:103770000E94921B0895CF93DF9300D000D01F9238
:10378000CDB7DEB70F900F900F900F900F90DF9195
:10379000CF910895CF93DF9300D000D000D0CDB764
:1037A000DEB726960FB6F894DEBF0FBECDBFDF9111
:1037B000CF9108951F93CF93DF93C0914D0216E0F0
:1037C00080914E02C81799F0D0E01C9FF0011D9F18
:1037D000F00D1124E15BFD4F4081518162817381C5
:1037E000848195810E94CA1B2196C770E9CFDF9121
:1037F000CF911F91089540917F0250918002609176
:1038000081027091820280918302909184020C94D3
:10381000CA1B0F931F93CF93DF93809184028295ED
:103820008F7009F05DC080918102882309F458C02F
:1038300080914D0210914E0260917F027091800242
:10384000C0918202D091830291E06F3F09F090E035
:10385000292F06E0811709F443C0209721F07F3F0C
:1038600021F030E003C031E001C0322F90E030FDA4
:1038700034C0089FF001099FF00D1124DF01A15B06
:10388000BD4F11963C911197371327C03C913613C9
:1038900024C012963C91129731111FC013964D917E
:1038A0005C9114974C1B5D0B483C5105B0F4809122
:1038B00084028F70806180938402EC5AFD4F808176
:1038C0008F70806180838FE792E00E94441BDF91BC
:1038D000CF911F910F910C94DA1B01968770BACF8C
:1038E000DF91CF911F910F9108959F92AF92BF9258
:1038F000CF92DF92EF92FF920F931F93CF93DF93BC
:10390000CDB7DEB761970FB6F894DEBF0FBECDBF5F
:103910008C0185E0F801DE011D9601900D928A95DB
:10392000E1F7F80140815181E28090917F0260913E
:10393000800220918202309183022115310531F0FD
:103940006F3F31F481E09F3F19F403C081E001C073
:1039500080E0F82FF1709F2E80FD46C1F801A38012
:10396000B4808FE7C82E82E0D82EF0908102F50156
:10397000E21BF30BFF2009F4DFC080918402E83CD6
:10398000F10508F09BC0282F207F09F052C0561384
:1039900013C0491311C0FE2CE1100EC08F7080615E
:1039A000809384020E94FB1BC6010E94441B8091ED
:1039B0008402F801858358C1AB2831F05F3F31F4B0
:1039C00081E04F3F19F403C081E001C080E080FD39
:1039D00003C081E08E2502C080E090E0F82FF170F6
:1039E000FF2E80FF1CC080914D0220914E0236E0D8
:1039F000821709F417C190E0389FF001399FF00D4C
:103A00001124E15BFD4F6181561306C060814613AE
:103A100003C06281E61203C001968770E9CFFE2CD5
:103A2000EE2009F421C18091840281608093840298
:103A30005AC0561306C0491304C0E11002C0F80171
:103A40009FC04D875E878D859E850E94B61B88230B
:103A500079F1EE2069F120918402822F82958F7096
:103A600090E0029774F080917F0290918002988795
:103A70008F831986BB86AA862C87CE0107960E9463
:103A8000441B86E0F801AFE7B2E001900D928A9501
:103A9000E1F70E94091C0E94FB1B0DC0561729F17B
:103AA0004D875E878D859E850E94B61B81112CC037
:103AB000C8010E94441BFF24F394D6C0282F207F06
:103AC00069F77A2DB98AA88A6E2D89890E94BB1B55
:103AD0008FE792E00E94441B86E0F60111928A95DE
:103AE000E9F70E94FB1BF12CBFC04913D9CFE110AD
:103AF000D7CFF8018583C8010E94441B86E0F601F8
:103B000011928A95E9F7B0C0EE2091F220918402DB
:103B1000822F82958F7090E002970CF4B2CF809143
:103B20007F02909180029A8389831B82BD82AC823E
:103B30002E83CE010196A3CFE83CF10508F047C0E3
:103B4000FE2CEE2009F4B4CF561330C049132EC01A
:103B50002091840220FD21C0822F82958F70482FF2
:103B600050E041155105C9F0F80125834F3051054A
:103B700041F08F5F982F9295907F822F8F70892BC5
:103B80008583C8010E94441B86E0F801AFE7B2E0DC
:103B900001900D928A95E1F742C086E0F801AFE707
:103BA000B2E001900D928A95E1F75EC04D875E8785
:103BB0008D859E850E94B61B811163CF8091840202
:103BC000816080938402C8010E94441B4DC07A2DFD
:103BD000B98AA88A6E2D89890E94BB1B86E0F601EE
:103BE00011928A95E9F71BC0EE2009F461CF4D8749
:103BF0005E878D859E850E94B61BF82E882309F46A
:103C000057CF86E0F801AFE7B2E001900D928A95B8
:103C1000E1F78FE792E00E94DC170E94091C0E94E6
:103C2000FB1B22C04D875E878D859E850E949E204E
:103C3000292F22952F70223028F49F7039F081119E
:103C400005C00BC0243028F49F7049F4805E883092
:103C500020F0C8010E94441B9F2CF92C05C0F801DC
:103C60009581907F99F7F9CF8F2D61960FB6F894D3
:103C7000DEBF0FBECDBFDF91CF911F910F91FF909F
:103C8000EF90DF90CF90BF90AF909F9008951F93DB
:103C9000CF93DF93CDB7DEB72C970FB6F894DEBF86
:103CA0000FBECDBF4F83588769877A878B879C87E4
:103CB000CE0107960E94751C8823D1F09F818885CC
:103CC0002A853B85232B31F08F3F31F481E09F3FE4
:103CD00019F403C081E001C080E080FD47C04F813E
:103CE000588569857A858B859C850E94CA1B3EC054
:103CF00086E0FE013796DE01119601900D928A95BD
:103D0000E1F7FF81E8856A857B856115710531F0F2
:103D1000EF3F31F481E0FF3F19F403C081E001C0BF
:103D200080E080FD23C020914E0230E0C901019661
:103D30008770992740914D0250E084179507F1F163
:103D4000F983EA837D836C8396E0929FD001939FF1
:103D5000B00D1124A15BBD4FFE01319601900D9273
:103D60009A95E1F780934E020E94DA1B16E080914B
:103D70004D0290914E02891771F1189FC0011124D4
:103D8000815B9D4F0E94751C882329F1E0914D02B3
:103D90001E9FF0011124E15BFD4F40815181628142
:103DA0007381848195810E94CA1B80914D0290E0AD
:103DB00001968770992780934D02D9CF0E948E1B60
:103DC00010924E0210924D02EFE7F2E086E0DF0122
:103DD0001D928A95E9F72C960FB6F894DEBF0FBEB8
:103DE000CDBFDF91CF911F910895089508950C9450
:103DF000F61E0C94F71E0E94F91E6093A7027093A2
:103E0000A8028093A9029093AA020C94741B0C94AC
:103E1000FB1E0F931F930091A7021091A8022091FF
:103E2000A9023091AA02602B712B822B932B1F9138
:103E30000F910C94FB1E0F931F930091A7021091FA
:103E4000A8022091A9023091AA0260237123822343
:103E500093231F910F910C94FB1E0F931F930091BE
:103E6000A7021091A8022091A9023091AA0260270E
:103E70007127822793271F910F910C94FB1E0C949E
:103E8000F61E0E943F1F6093A3027093A4028093CA
:103E9000A5029093A6020C94741B60E070E0CB0125
:103EA0000C94411F0F931F9341E050E060E070E0DD
:103EB0008A019B0104C0000F111F221F331F8A9526
:103EC000D2F7C901B8011F910F910C94411F0F93B4
:103ED0001F9341E050E060E070E004C0440F551FC4
:103EE000661F771F8A95D2F78091A3029091A40252
:103EF000A091A502B091A6028A019B01082B192B63
:103F00002A2B3B2BC901B8011F910F910C94411F23
:103F10000F931F9341E050E060E070E004C0440F55
:103F2000551F661F771F8A95D2F74095509560956B
:103F300070958091A3029091A402A091A502B091E6
:103F4000A6028A019B01082319232A233B23C901C6
:103F5000B8011F910F910C94411F0F931F9341E0E3
:103F600050E060E070E004C0440F551F661F771FEB
:103F70008A95D2F78091A3029091A402A091A50204
:103F8000B091A6028A019B01082719272A273B27FF
:103F9000C901B8011F910F910C94411F0F931F93FA
:103FA0000091A3021091A4022091A5023091A602D3
:103FB000602B712B822B932B1F910F910C94411F1F
:103FC0000F931F930091A3021091A4022091A502C8
:103FD0003091A60260237123822393231F910F91B6
:103FE0000C94411F0F931F930091A3021091A40200
:103FF0002091A5023091A60260277127822793277E
:104000001F910F910C94411F08952CE0929F800DF9
:104010001124E82FE695E695E695877051E001C0FA
:10402000550F8A95EAF785E0E89FF0011124EB57D8
:10403000FD4F20E030E070E04081CB01022E02C055
:10404000969587950A94E2F7817081958427852358
:10405000842781932F5F3F4F2530310569F70895FD
:104060002CE0929F800D1124682F669566956695C9
:10407000982F977085E0689FB001112440E050E0D0
:1040800080E0FB01E40FF51FEB57FD4F208130E08E
:10409000092E02C0369527950A94E2F7217033273E
:1040A000042E01C0220F0A94EAF7822B4F5F5F4F64
:1040B0004530510531F70895BF92CF92DF92EF92CC
:1040C000FF920F931F93CF93DF938C01C090A302B5
:1040D000D090A402E090A502F090A6028091A702E1
:1040E0009091A802A091A902B091AA02C82AD92A47
:1040F000EA2AFB2ACFE1D0E0D701C6010C2E04C08A
:10410000B695A795979587950A94D2F780FD04C038
:10411000219790F7B12C07C0BC2EB8018C2F0E94BC
:10412000E4050197A9F38B2DDF91CF911F910F919A
:10413000FF90EF90DF90CF90BF900895CF93DF93E3
:10414000EC010E945C20BE010E94E405DF91CF914A
:1041500008951F93CF93DF93EB0190914C02992325
:1041600021F0CB010E949E2013C0882349F0CB018F
:104170000E945C20182F682FCE010E94052004C0E9
:10418000CB010E943020182FBE01812F0E94E40530
:10419000DF91CF911F9108958091AB028595859510
:1041A000859508958091AB02877008959091AB0238
:1041B000977081E009F480E008958091B702089536
:1041C0009091B702892B8093B702089580959091C2
:1041D000B70289238093B70208951092B702089519
:1041E0009091B602892B8093B602089580959091A4
:1041F000B60289238093B60208951092B6020895FC
:104200001092B50208958091AC02089508950C941F
:1042100006210C9407219091AC02981721F080930D
:10422000AC020C94092108958091AC02882329F0F6
:104230001092AC0280E00C9409210895E0911701DE
:10424000F09118018091B7028083E0911701F091FD
:10425000180190818091B602892B8083E09117012B
:10426000F091180190818091B502892B8083809113
:10427000AC02882381F0E0911701F0911801908140
:10428000892B808380911701909118010E9435221B
:1042900081110E94142180911701909118010C94B2
:1042A00089160C94062198E0899F90011124262BF1
:1042B0002093AB020E94671F8091AB028595859584
:1042C00085950C9451211092AB0280E00C94512101
:1042D0002091AB02809582238093AB02982F977038
:1042E00079F430E0482F082E000C550B24173507C1
:1042F00039F08595859585950E94881F0C946321DA
:1043000008956FEF7FEF80E090E00C94423280E000
:1043100090E00E941E3221E08C3E9E4F09F020E08A
:10432000822F089582E090E00C94103283E090E0B8
:104330000C941032CF9384E090E00E941032C82F8A
:1043400081E290E00E9410322C2F30E0A901582B1E
:10435000CA01CF910895CF93C92F682F84E090E0D0
:104360000E9424326C2F81E290E0CF910C94243291
:10437000AB01BC018FE090E00C943632AB01BC0184
:1043800083E190E00C94363260E070E0CB010C9455
:10439000BE2160E070E0CB010E94B8210C94C421E2
:1043A0006CEE7EEF80E090E00E94423260E082E0BE
:1043B00090E00E94243260E083E090E00E9424328A
:1043C0001092A7021092A8021092A9021092AA02BB
:1043D00060E084E090E00E94243260E081E290E0BE
:1043E0000E94243260E085E090E00E94243260E088
:1043F00086E090E00E9424326FEF87E090E00E9418
:10440000243240E050E0BA0188E090E00E94363269
:1044100060E08DE090E00E94243240E050E0BA017C
:1044200088E190E00E94363260E087E190E00E94EF
:10443000243240E050E0BA018CE190E00E94363234
:1044400060E080E290E00E94243240E050E0BA0157
:1044500088E190E00E9436320C94C9210C94D0215E
:10446000682F8EE090E00C942432FC01329697E0A5
:1044700080E0915029F021912223D9F38F5FF9CF69
:104480000895662349F0FC0132960896219162173F
:1044900029F0E817F907D1F780E0089581E0089541
:1044A0009C01FC0132969FEF80E04191461789F014
:1044B0009F3F19F4411101C0982F8F5F8630A9F7F3
:1044C0009F3F39F0F901E90FF11D97FDFA956283DD
:1044D000089508959C012A5F3F4FFC0142814613D5
:1044E00001C01282019682179307B9F708950C94C0
:1044F00050220C946A22029626E0FC0111922A9521
:10450000E9F7089508950C9482220C948222CF93A7
:104510000E9485220E9429080E948322C0E08C2FDD
:104520000E94BD07892B29F4CF5FC430C1F780E01A
:1045300001C081E0CF9108950C9482220C949C22BA
:104540000E949E2280912003843059F11092B9027A
:1045500020E488E190E00FB6F894A895809360007D
:104560000FBE2093600080E00E94DB050E94E00EF9
:104570000E949E2283B7817F846083BF83B781605E
:1045800083BF7894889583B78E7F83BF0FB6F894E6
:10459000A89580916000886180936000109260000F
:1045A0000FBE08950C9482220E948E1B0E947D16DD
:1045B0000E94DB050E94AC0F0C94D2221F920F9236
:1045C0000FB60F9211248F939F93AF93BF93809157
:1045D000B902811113C08091160390911703A09125
:1045E0001803B09119034196A11DB11D80931603C4
:1045F00090931703A0931803B0931903BF91AF9141
:104600009F918F910F900FBE0F901F90189582E091
:1046100084BD93E095BD9AEF97BD80936E00089599
:104620002FB7F8948091160390911703A091180367
:10463000B09119032FBF08952FB7F8946091160316
:104640007091170380911803909119032FBF08955B
:104650009C014FB7F8948091160390911703A09195
:104660001803B09119034FBF821B930B08957894E0
:104670001F920F920FB60F9211248F939F93AF93B7
:10468000BF938091160390911703A0911803B091E6
:1046900019030196A11DB11D809316039093170372
:1046A000A0931803B0931903BF91AF919F918F917D
:1046B0000F900FBE0F901F90189581E08093E0003F
:1046C00080E28093D8001092C9008FE19EE40197A8
:1046D000F1F700C0000087E090EBDC018093290334
:1046E00090932A03A0932B03B0932C039CE088E1C2
:1046F0000FB6F894A895809360000FBE9093600069
:10470000FFCF0C944D110E9429088FE39CE901977B
:10471000F1F700C000000E94290880E00E94BD0758
:1047200080FF04C00E9481230C945D2308950E94A1
:104730008721811102C00E942E220E949221809323
:10474000B8020E949A2190931B0380931A030E943F
:104750009621682F70E080E090E00E94071F609132
:10476000A3027091A4028091A5029091A6020C94DC
:104770003F1F8091C00280FF0BC060911E0185E049
:10478000689FB001112475956795759567952BC045
:1047900081FF09C060911E0185E0689FB00111246E
:1047A0007595679520C082FF07C060911E0185E066
:1047B000689FB001112417C09091BF029923D1F0D6
:1047C00060911D01961788F720911E0185E0289FB2
:1047D00090011124929FA001939F500D112470E02D
:1047E000CA010E9433316038710540F461157105CA
:1047F00019F406C065E070E0862F08958FE70895EC
:1048000081E008958091C00280FF08C060911A0184
:1048100070E0759567957595679521C081FF06C015
:1048200060911A0170E07595679519C082FF04C008
:1048300060911A0170E010C09091BE02992399F026
:10484000609119019617A0F780911A01899FC00104
:10485000112470E00E9433316038710540F4611515
:10486000710519F406C061E070E0862F08958FE7A6
:10487000089581E00895803F21F40E94B923819535
:1048800004C0813F29F40E94B9238093C402089593
:10489000823F21F40E94B923819504C0833F29F40B
:1048A0000E94B9238093C3020895893F19F40E949E
:1048B000022405C08A3F31F40E940224819580932E
:1048C000C50208958B3F21F40E940224819504C003
:1048D0008C3F29F40E9402248093C6020895843FED
:1048E00021F48091C202816017C0853F21F480913C
:1048F000C202826011C0863F21F48091C2028460AE
:104900000BC0873F21F48091C202886005C0883FB8
:1049100031F48091C20280618093C20208958D3F7C
:1049200021F48091C00281600BC08E3F21F4809100
:10493000C002826005C08F3F29F48091C00284606C
:104940008093C0020895803F39F48091C40287FFAC
:104950006AC01092C40267C0813F29F48091C402EA
:104960001816BCF360C09091C302823F29F497FFF0
:104970005AC01092C30257C0833F19F41916CCF3E2
:1049800052C09091C502893F31F419160CF04BC00A
:104990001092C50248C08A3F19F497FF44C0F8CF6F
:1049A0008B3F39F48091C60287FF3DC01092C6024A
:1049B0003AC08C3F29F48091C6021816BCF333C06C
:1049C000843F21F48091C2028E7F17C0853F21F47D
:1049D0008091C2028D7F11C0863F21F48091C20276
:1049E0008B7F0BC0873F21F48091C202877F05C077
:1049F000883F31F48091C2028F7E8093C20213C03F
:104A00008D3F21F48091C0028E7F0BC08E3F21F438
:104A10008091C0028D7F05C08F3F29F48091C00234
:104A20008B7F8093C0028091C302811106C0809168
:104A3000C402811102C01092BF028091C50281118F
:104A400006C08091C602811102C01092BE02089574
:104A50000E9410232091C302211104C02091C4029E
:104A6000222321F09093BD028093BC022091C502C5
:104A7000211104C02091C602222321F09093BB0291
:104A80008093BA0281EC92E00C949416EF92FF921C
:104A90000F931F93CF93DF9300D000D000D0CDB7FA
:104AA000DEB786E0E1ECF2E0DE01119601900D92B6
:104AB0008A95E1F7E090C302F090C4020091C5022C
:104AC0001091C6021092C3021092C4021092C50245
:104AD0001092C602E11003C0FF2009F45DC080916E
:104AE000BC029091BD020E942823AC019091BF02AC
:104AF000992339F020911F0130E02417350758F031
:104B00004BC0209120018AE0289F90011124241796
:104B1000350718F041C09F3F19F09F5F9093BF0287
:104B2000EE2061F00E94B9231E1414F09FEF01C023
:104B300091E0989F902D11249093C302FF2061F083
:104B40000E94B9231F1414F09FEF01C091E0989FB9
:104B5000902D11249093C4023091C3023323E1F0CD
:104B60002091C4022223C1F045EB3403C00111247B
:104B7000992319F09093C30203C081E08093C3028C
:104B800035EB2303C0011124992319F09093C4023B
:104B900003C081E08093C402011103C0112309F412
:104BA0005DC08091BA029091BB020E942823AC01A3
:104BB0009091BE02992339F020911B0130E0241717
:104BC000350758F04BC020911C018AE0289F9001C6
:104BD00011242417350718F041C09F3F19F09F5F3B
:104BE0009093BE02002361F00E940224101614F07C
:104BF0009FEF01C091E0989F902D11249093C502E2
:104C0000112361F00E940224111614F09FEF01C0DD
:104C100091E0989F902D11249093C6023091C50287
:104C20003323E1F02091C6022223C1F045EB340387
:104C3000C0011124992319F09093C50203C081E0AB
:104C40008093C50235EB2303C0011124992319F089
:104C50009093C60203C081E08093C6028091C30294
:104C600081110BC08091C402811107C08091C502DF
:104C7000811103C08091C60281110E942825EB8218
:104C8000FC820D831E8386E0FE013196A1ECB2E02A
:104C900001900D928A95E1F726960FB6F894DEBF43
:104CA0000FBECDBFDF91CF911F910F91FF90EF907D
:104CB0000895E1ECF2E086E0DF011D928A95E9F7C4
:104CC0001092BF021092BE021092C002089580910D
:104CD000CF020895CF93DF9300D01F92CDB7DEB7F8
:104CE00090912003943011F589837B836A8390939C
:104CF000E9008FEF9091E800815095FD06C095ED99
:104D00009A95F1F700008111F5CF8091E80085FFB9
:104D10000DC040E050E063E070E0CE0101960E94DB
:104D2000E1288091E8008E778093E8000F900F9043
:104D30000F90DF91CF910895BC0184E00C946A2616
:104D4000BC0183E00C946A2624E02093E9002FEF55
:104D50003091E800215035FD06C035ED3A95F1F768
:104D600000002111F5CF2091E80025FF0BC040E0A5
:104D700050E066E070E00E94E1288091E8008E77C4
:104D80008093E8000895CF93DF9321E02093E9001A
:104D90002FEF3091E800215035FD06C035ED3A95F2
:104DA000F1F700002111F5CF2091E80025FF14C094
:104DB000EC0140E050E068E070E00E94E128809162
:104DC000E8008E778093E80088E0FE01A7ECB2E06F
:104DD00001900D928A95E1F7DF91CF910895CF93DD
:104DE000603219F5209120032430F9F4C091E900D4
:104DF000CF703091EC00232F217030FD20E8C22BC2
:104E000022E02093E9002091E80020FF0BC040E061
:104E100050E060E270E00E94E1288091E8008E7727
:104E20008093E800CF70C093E900CF9108958091FE
:104E30001F03811109C00E94BD2A0E941A2B809174
:104E4000E20084608093E200089510921F030895A9
:104E5000089508950C94D42242E061EC81E00E9410
:104E6000362A42E261EC84E00E94362A42E261EC9A
:104E700082E00E94362A42E260EC83E00C94362AFB
:104E800080912203833009F462C030F4813071F0E4
:104E9000823009F49BC008958A3009F487C08B30B2
:104EA00009F46DC0893009F0A9C020C080912103A8
:104EB000813A09F0A3C08091E800877F8093E800E1
:104EC0008091250390912603892B21F468E087ECDB
:104ED00092E003C060E080E090E070E00E947729FB
:104EE0008091E8008B778093E800089580912103FA
:104EF000813209F083C080912503909126030097A9
:104F000019F0029709F07AC08091E800877F8093BA
:104F1000E8008091E80082FD05C0809120038111A6
:104F2000F8CF6CC02091F3008091F20090E0922BBA
:104F3000029729F48091F1008B7F813021F48091D8
:104F4000F1008093CF028091E8008B7753C080916D
:104F50002103813A09F052C08091250390912603E4
:104F6000892B09F04BC08091E800877F8093E8008F
:104F70008091E80080FFFCCF80912B0136C08091AA
:104F800021038132D9F58091250390912603892B45
:104F9000A9F58091E800877F8093E8000E946B2A42
:104FA0008091230380932B010C948E1B809121030D
:104FB000813221F58091E800877F8093E8000E948C
:104FC0006B2A809124038093D0020895809121035D
:104FD000813AA1F48091E800877F8093E800809176
:104FE000E80080FFFCCF8091D0028093F100809197
:104FF000E8008E778093E8000C946B2A08951F9345
:10500000CF93DF93CDB7DEB7A0970FB6F894DEBF8E
:105010000FBECDBF84B7877F84BF0FB6F894A89525
:1050200080916000886180936000109260000FBEE4
:1050300090E080E80FB6F89480936100909361004F
:105040000FBE0E94E6160E94BD2A0E941A2B809174
:10505000E20084608093E20078940E94AF2D0E9469
:10506000EC1681E291E00E94781613E08091200313
:10507000853069F40E94A02280911E038823B1F339
:105080000E948722882391F30E94CB28EFCF0E94B1
:10509000F81680912003843009F51093E90080917F
:1050A000E80082FF1BC08091E80085FF0AC040E055
:1050B00050E060E270E0CE0101960E942C2991E060
:1050C00001C090E08091E8008B778093E8009923FD
:1050D00029F060E2CE0101960E9405120E94DA16C4
:1050E0000E94D916C3CF0C947528292F332723305B
:1050F0003105C9F060F42130310581F022303105ED
:1051000009F041C08BE590E021E135E040C021325B
:105110003105E1F02232310531F135C082E190E014
:105120002CE635E034C099278130910549F028F00C
:10513000029749F5EFEEF4E005C0EDE0F5E002C0BE
:10514000E1E0F5E0849190E09F0121C063307105BA
:10515000D0F4660F771FFB01EE52FE4F20813181A4
:1051600089E090E014C06330710568F4FB01EE0F34
:10517000FF1FE453FE4F20813181FB01E753FE4FB7
:10518000808190E004C080E090E020E030E0FA010F
:1051900031832083089580E189BD82E189BD09B40E
:1051A00000FEFDCF8091D8008F7D8093D800809144
:1051B000E00082608093E0008091E00081FDFCCF00
:1051C0000895CF92DF92EF92FF920F931F93CF93A8
:1051D000DF93EC018B017A010E948A2A811133C08E
:1051E000E114F10439F0F70180819181081B190B5A
:1051F000C80FD91FC12CD12C0115110519F18091AF
:10520000E80085FD16C08091E8008E778093E80065
:10521000E114F10449F0F70180819181C80ED91E93
:10522000D182C08285E00FC00E948A2A882321F3A0
:105230000AC089918093F10001501109FFEFCF1A44
:10524000DF0ADACF80E0DF91CF911F910F91FF90BD
:10525000EF90DF90CF900895CF92DF92EF92FF9280
:105260000F931F93CF93DF93EC018B017A010E9480
:105270008A2A811133C0E114F10439F0F7018081E9
:105280009181081B190BC80FD91FC12CD12C0115F6
:10529000110519F18091E80085FD16C08091E800A4
:1052A0008B778093E800E114F10449F0F7018081E5
:1052B0009181C80ED91ED182C08285E00FC00E94A4
:1052C0008A2A882321F30AC08091F1008993015032
:1052D0001109FFEFCF1ADF0ADACF80E0DF91CF911B
:1052E0001F910F91FF90EF90DF90CF900895209144
:1052F0002703309128032617370748F061157105F9
:1053000039F42091E8002E772093E80001C0B9011C
:10531000FC0120E06115710579F18091200388235B
:10532000F1F18530F1F18091E80083FD3CC080917E
:10533000E80082FD2EC08091E80080FFEBCF209135
:10534000F3008091F20090E0922B6115710551F00D
:105350008830910538F421912093F1006150710952
:105360000196F3CF21E0089709F020E08091E80052
:105370008E778093E800CECF2111CFCF0AC08091E5
:105380002003882361F0853061F08091E80083FD7F
:105390000AC08091E80082FFF2CF80E0089582E0A9
:1053A000089583E0089581E00895209127033091C6
:1053B00028032617370748F06115710539F4209145
:1053C000E8002E772093E80001C0B901FC0120E03D
:1053D0006115710591F180912003882309F440C083
:1053E000853009F43FC08091E80083FD3DC0809185
:1053F000E80082FD2FC08091E80080FFE9CF209176
:10540000F3008091F20090E0922B6115710559F044
:105410008830910540F424912093F1003196615039
:1054200071090196F2CF21E0089709F020E0809100
:10543000E8008E778093E800CBCF2111CCCF0AC053
:1054400080912003882361F0853061F08091E8002D
:1054500083FD0AC08091E80082FFF2CF80E00895CA
:1054600082E0089583E0089581E00895982F9730B1
:1054700068F59093E900981739F07091EC0020914D
:10548000ED005091F00003C0242F762F50E021FD55
:1054900002C09F5FECCF3091EB003E7F3093EB007A
:1054A0003091ED003D7F3093ED003091EB003160A5
:1054B0003093EB007093EC002093ED005093F000DC
:1054C0002091EE0027FDE5CF80E008958F70809356
:1054D000E90081E008958091210387FF11C0809148
:1054E000E80082FD05C0809120038111F8CF11C032
:1054F0008091E8008B770BC080912003882349F0CE
:105500008091E80080FFF8CF8091E8008E7780934B
:10551000E80008952091E4003091E50095E640917F
:10552000EC00842F817040FF23C08091E80080FD53
:105530001DC080912003882399F0853099F08091D7
:10554000EB0085FD11C04091E4005091E500241767
:10555000350729F3915011F09A01E1CF84E00895C5
:1055600082E0089583E0089581E0089580E0089541
:105570004091E80042FFDDCF08950E942B2B0E944E
:10558000332BE0EEF0E0808181608083E8EDF0E095
:1055900080818F77808319BCA7EDB0E08C918E7FDE
:1055A0008C9380818F7E808310921F0308950F93C8
:1055B0001F93CF93DF930E942B2B0E94332BC8EDB8
:1055C000D0E088818F77888388818068888388810C
:1055D0008F7D888319BC1092200310921C031092B7
:1055E0001E0310921D0300EE10E0F80180818B7FF6
:1055F000808388818160888342E060E080E00E944F
:10560000362AE1EEF0E080818E7F8083E2EEF0E0EA
:10561000808181608083808188608083F8018081BF
:105620008E7F8083888180618883DF91CF911F91F5
:105630000F910895E8EDF0E080818F7E8083E7EDA3
:10564000F0E080818160808384E082BF81E080938C
:105650001F030C94D72AE8EDF0E080818E7F8083D1
:105660001092E20008951092DA001092E10008957D
:105670001F920F920FB60F9211242F933F934F93C7
:105680005F936F937F938F939F93AF93BF93EF93AA
:10569000FF938091E10082FF0BC08091E20082FFC6
:1056A00007C08091E1008B7F8093E1000E94AE2DC6
:1056B0008091DA0080FF1FC08091D80080FF1BC05E
:1056C0008091DA008E7F8093DA008091D90080FF8C
:1056D0000DC080E189BD82E189BD09B400FEFDCF26
:1056E00081E0809320030E94172705C019BC109207
:1056F00020030E9425278091E10080FF19C080913E
:10570000E20080FF15C08091E2008E7F8093E2006E
:105710008091E20080618093E2008091D8008062F5
:105720008093D80019BC85E0809320030E9429272C
:105730008091E10084FF30C08091E20084FF2CC0A2
:1057400080E189BD82E189BD09B400FEFDCF809171
:10575000D8008F7D8093D8008091E1008F7E809368
:10576000E1008091E2008F7E8093E2008091E20070
:1057700081608093E20080911C03882311F084E013
:1057800007C08091E30087FD02C081E001C083E093
:10579000809320030E942A278091E10083FF29C083
:1057A0008091E20083FF25C08091E100877F809394
:1057B000E10082E08093200310921C038091E100BD
:1057C0008E7F8093E1008091E2008E7F8093E200E3
:1057D0008091E20080618093E20042E060E080E03E
:1057E0000E94362A8091F00088608093F0000E9429
:1057F0002827FF91EF91BF91AF919F918F917F915A
:105800006F915F914F913F912F910F900FBE0F902D
:105810001F9018951F920F920FB60F9211242F937D
:105820003F934F935F936F937F938F939F93AF9328
:10583000BF93CF93DF93EF93FF93C091E900CF70B5
:105840008091EC00D82FD17080FDD0E81092E90053
:105850008091F000877F8093F00078940E944E2C16
:105860001092E9008091F00088608093F000CD2BC9
:10587000CF70C093E900FF91EF91DF91CF91BF917D
:10588000AF919F918F917F916F915F914F913F91D8
:105890002F910F900FBE0F901F9018951F93CF93CD
:1058A000DF93CDB7DEB7AA970FB6F894DEBF0FBE71
:1058B000CDBFE1E2F3E08091F100819323E0E93292
:1058C000F207C9F70E9440278091E80083FF2EC1AC
:1058D0008091210390912203492F50E04A305105D5
:1058E00008F024C1FA01E956FF4F0C946931803861
:1058F00021F0823809F01AC108C080911D039091EF
:105900001E03992389F082600FC0809125038F7058
:10591000873008F00BC18093E9008091EB0085FB94
:10592000882780F91092E9009091E800977F909382
:10593000E8008093F1001092F100D1C0282F2D7F54
:1059400009F0F4C0882319F0823061F0EFC0809133
:105950002303813009F0EAC0933009F080E080939E
:105960001E032EC08091230381112AC0809125033C
:105970008F702FEF280F263008F0D8C08093E900F1
:105980002091EB0020FF1CC0933021F48091EB00AC
:10599000806214C09091EB0090619093EB0021E045
:1059A00030E0A90102C0440F551F8A95E2F74093E9
:1059B000EA001092EA008091EB0088608093EB008F
:1059C0001092E9008091E800877F8093E8000E94B0
:1059D0006B2AACC08111AAC0109123031F7780915C
:1059E000E3008078812B8093E3008091E800877F3B
:1059F0008093E8000E946B2A8091E80080FFFCCF32
:105A00008091E30080688093E300111102C082E07E
:105A100001C083E08093200389C08058823008F061
:105A200085C080912303909124038C3D53E095071A
:105A300079F583E08A838AE289834FB7F894DE019F
:105A4000139620E03EE051E2E32FF0E05093570040
:105A5000E49120FF03C0E295EF703F5FEF708E2F5F
:105A600090E0EA3010F0C79601C0C0968D939D93E8
:105A70002F5F243149F74FBF8091E800877F8093E3
:105A8000E8006AE270E0CE0101960E94772916C014
:105A90006091250370912603AE014F5F5F4F0E9416
:105AA0007328BC01892B09F441C09091E800977FCD
:105AB0009093E80089819A810E94D5298091E8001D
:105AC0008B778093E80032C0803881F58091E800C0
:105AD000877F8093E80080911C038093F100809180
