:100000000C9432050C9479050C9479050C947905BF
:100010000C9479050C9479050C9479050C94790568
:100020000C9479050C9479050C94F0250C94C32656
:100030000C94FB1C0C9479050C9479050C947905AF
:100040000C9479050C9479050C9479050C94790538
:100050000C9479050C945C1D0C9479050C9479052D
:100060000C9479050C9479050C9479050C94790518
:100070000C9479050C9479050C9479050C94790508
:100080000C9479050C9479050C9479050C947905F8
:100090000C9479050C9479050C9479050C947905E8
:1000A0000C9479050C9479050C94790529001400B9
:1000B0001A000800150017001C0018000C001200A0
:1000C00013002A00E00004001600070009000A00DF
:1000D0000B000D000E000F002D002800E1001D0098
:1000E0001B0006001943054211411000360037007D
:1000F0005200E100E200E300000000002C4100009B
:1001000028422C620000500051004F002B001E00BE
:100110001F002000210022002300240025002600CB
:1001200027002A00E0001E021F02200221022202F4
:100130002E022D00250238002E002800E1000100CB
:100140000100010001000100010001002F0030004A
:100150005200E100E200E300000000002C0000007B
:1001600028002C620000500051004F002B003A0084
:100170003B003C003D003E003F004000410042008B
:1001800043002A00E0002F0030003100330033002C
:100190005000510052004F0038022800E1002D00AD
:1001A00031022302350201000100010001000100BB
:1001B0005200E100E200E300000000002C0000001B
:1001C00001002C000000500051004F002B001E02C7
:1001D0001F022002210222022302240225022602FB
:1001E00027022A00E000347035703670377038709E
:1001F00039703A703B70010001002800E1000100F5
:1002000001000100010001000100010001000100E6
:100210005200E100E200E300000000002C000000BA
:1002200000702C000000500051004F000100010040
:1002300001000100010001000100010001000100B6
:1002400001000100010001000100010001000100A6
:100250000100010001000100010001000100010096
:100260000100010001000100010001000100010086
:100270000100010001000100000000000100000079
:100280000100010000000100010001000100010067
:100290000100010001000100010001000100010056
:1002A0000100010001000100010001000100010046
:1002B0000100010001000100010001000100010036
:1002C0000100010001000100010001000100010026
:1002D0000100010001000100000000000100000019
:1002E0000100010000000100010001000100010007
:1002F00001000100010001000100010001000100F6
:1003000001000100010001000100010001000100E5
:1003100001000100010001000100010001000100D5
:1003200001000100010001000100010001000100C5
:1003300001000100010001000000000001000000B8
:1003400001000100000001000100010001000100A6
:100350000100010001000100010001000100010095
:100360000100010001000100010001000100010085
:100370000100010001000100010001000100010075
:100380000100010001000100010001000100010065
:100390000100010001000100000000000100000058
:1003A0000100010000000100010001000100010046
:1003B0000100010001000100010001000100010035
:1003C0000100010001000100010001000100010025
:1003D0000100010001000100010001000100010015
:1003E0000100010001000100010001000100010005
:1003F00001000100010001000000000001000000F8
:1004000001000100000001000100010001000100E5
:1004100001000100010001000100010001000100D4
:1004200001000100010001000100010001000100C4
:1004300001000100010001000100010001000100B4
:1004400001000100010001000100010001000100A4
:100450000100010001000100000000000100000097
:100460000100010000000100010001000100010085
:100470000100010001000100010001000100010074
:100480000100010001000100010001000100010064
:100490000100010001000100010001000100010054
:1004A0000100010001000100010001000100010044
:1004B0000100010001000100000000000100000037
:1004C0000100010000000100010001000100010025
:1004D0000100010001000100010001000100010014
:1004E0000100010001000100010001000100010004
:1004F00001000100010001000100010001000100F4
:1005000001000100010001000100010001000100E3
:1005100001000100010001000000000001000000D6
:1005200001000100000001000100010001000100C4
:1005300001000100010001000100010001000100B3
:1005400001000100010001000100010001000100A3
:100550000100010001000100010001000100010093
:100560000100010001000100010001000100010083
:100570000100010001000100000000000100000076
:100580000100010000000100010001000100010064
:100590000100010001000100010001000100010053
:1005A0000100010001000100010001000100010043
:1005B0000100010001000100010001000100010033
:1005C0000100010001000100010001000100010023
:1005D0000100010001000100000000000100000016
:1005E0000100010000000100010001000100010004
:1005F00001000100010001000100010001000100F3
:1006000001000100010001000100010001000100E2
:1006100001000100010001000100010001000100D2
:1006200001000100010001000100010001000100C2
:1006300001000100010001000000000001000000B5
:1006400001000100000001000100010001000100A3
:100650000100010001000100010001000100010092
:100660000100010001000100010001000100010082
:100670000100010001000100010001000100010072
:100680000100010001000100010001000100010062
:100690000100010001000100000000000100000055
:1006A0000100010000000100010001006432146437
:1006B0003214783C1E1E140A0500000000010101DE
:1006C0000202030405050607090A0B0C0E0F11129E
:1006D000141517191B1D1F212325282A2C2F3134EF
:1006E00036393B3E414346494C4F5255585A5D615D
:1006F00064676A6D707376797C7F8386898C8F924C
:1007000095989B9EA2A5A7AAADB0B3B6B9BCBEC131
:10071000C4C6C9CBCED0D3D5D7DADCDEE0E2E4E67E
:10072000E8EAEBEDEEF0F1F3F4F5F6F8F9FAFAFB9E
:10073000FCFDFDFEFEFEFFFFFFFFFFFFFFFEFEFED6
:10074000FDFDFCFBFAFAF9F8F6F5F4F3F1F0EEED45
:10075000EBEAE8E6E4E2E0DEDCDAD7D5D3D0CECBD4
:10076000C9C6C4C1BEBCB9B6B3B0ADAAA7A5A29E46
:100770009B9895928F8C898683807C797673706D37
:100780006A6764615D5A5855524F4C494643413E31
:100790003B393634312F2C2A282523211F1D1B19C4
:1007A00017151412110F0E0C0B0A09070605050484
:1007B000030202010101000000000000000001012D
:1007C0000101010101010102020202020202020210
:1007D00003030303030303030404040404040505DF
:1007E00005050506060606060707070708080808A0
:1007F0000909090A0A0A0A0B0B0B0C0C0C0D0D0D4A
:100800000E0E0F0F0F1010111111121213131414DA
:10081000151516161717181819191A1A1B1C1C1D4E
:100820001D1E1F1F202021222223242525262727A5
:1008300028292A2B2B2C2D2E2F2F303132333435D3
:1008400036363738393A3B3C3D3E3F4041424344DF
:10085000464748494A4B4C4D4F50515253555657B5
:10086000585A5B5C5E5F606263646667696A6C6D60
:100870006E707173747678797B7C7E8081838486D8
:10088000888A8B8D8F91929496989A9B9D9FA1A315
:10089000A5A7A9ABADAFB1B3B5B7B9BBBDBFC1C417
:1008A000C6C8CACCCFD1D3D6D8DADCDFE1E4E6E8DB
:1008B000EBEDF0F2F5F7FAFCFF12036B006500793F
:1008C0000062006F00610072006400000016037196
:1008D000006D006B006200750069006C00640065CB
:1008E00000720000000403090409026D0004010005
:1008F000A0FA09040000010301010009211101000F
:10090000012240000705810308000A0904010001D3
:1009100003010200092111010001224D0007058297
:100920000308000A09040200010300000009211164
:100930000100012236000705830308000A090403A9
:100940000001030000000921110100012239000704
:100950000584032000011201100100000008EDFED3
:10096000606001000102000105010906A1010507FF
:1009700019E029E715002501950875018102050890
:1009800019012905950575019102950175039101DC
:100990000507190029F71500250195F87501810251
:1009A000C005010980A10185021601002603001A75
:1009B00081002A8300751095018100C0050C090192
:1009C000A1018503160100269C021A01002A9C023F
:1009D000751095018100C005010902A1010901A15D
:1009E00000050919012905150025019505750181E5
:1009F0000295017503810105010930093115812531
:100A00007F95027508810609381581257F95017546
:100A1000088106050C0A38021581257F95017508A5
:100A20008106C0C005010906A101050719E029E7F3
:100A30001500250195087501810295017508810150
:100A400005081901290595057501910295017503A0
:100A500091010507190029FF150026FF009506756D
:100A6000088100C011241FBECFEFDAE0DEBFCDBF8A
:100A700004B603FE27C08091610290916202A091AA
:100A80006302B09164028730904BA740B04BD1F421
:100A9000109261021092620210926302109264023C
:100AA00014BE84B7877F84BF0FB6F894A895809151
:100AB0006000886180936000109260000FBEE0E0EB
:100AC000F8E3099511E0A0E0B1E0E6E9F4E502C041
:100AD00005900D92A833B107D9F722E0A8E3B1E061
:100AE00001C01D92A136B207E1F70E9444230C9485
:100AF000142A0C94000090E080E008950895089571
:100B000081E00895089581E008950C9480050E9485
:100B100045152FEF84E39CE0215080409040E1F7A1
:100B200000C000000C947F1DEF92FF920F931F9363
:100B3000CF93DF937C01DC010D911C911197809183
:100B40008301811143C012968C918823D1F1C80191
:100B50000E94CA1AC82F682FC8010E94731AB801D0
:100B60008C2F0E94FF06EC01B7010E9485058823A7
:100B700009F468C0B701CE010E940809882309F46E
:100B800061C0CE33B0E7DB0770F4C433E0E7DE07C3
:100B900010F5C130F0E7DF0709F45CC050F5C1156E
:100BA000D04709F44AC081E080933A0180933B0129
:100BB000C701DF91CF911F910F91FF90EF900C949F
:100BC0008305C8010E94A11AC82FC9CFC8010E947D
:100BD000CA1AB801C6CFFE01E553F047D7011296F5
:100BE0008C91E930F10508F040C0EA5EF54D0C94B7
:100BF000C629CE01825090474397A8F6F70182811B
:100C00008823B1F20E948C1C811102C00E946B1CCF
:100C10000E94A91C90E09093530280935202FE011F
:100C2000E350F047809152028160E231F10508F013
:100C300047C0E15EF54D0C94C629F7018281811110
:100C40000E94870580E0DF91CF911F910F91FF9067
:100C5000EF900895D70112968C91882399F3809193
:100C60000702816080930702EDCF882359F30E9429
:100C70009E0DE8CF882331F30E94940DE3CF8823A3
:100C800009F30E94710CDECF8823E1F20E94890CE7
:100C9000D9CF8823B9F20E94A80CD4CF882391F22F
:100CA0000E94C00CCFCF882369F20E94D80CCACF13
:100CB000882341F20E94F00CC5CF809152028260DD
:100CC00080935202809152020E94AD1C0E944515F1
:100CD000B9CF809152028460F3CF80915202886034
:100CE000EFCF809152028061EBCF809152028062FF
:100CF000E7CF809152028064E3CF809152028068F6
:100D0000DFCF809152028C60DBCF809152028E7FC8
:100D1000D7CF809152028D7FD3CF809152028B7FAB
:100D2000CFCF80915202877FCBCF809152028F7EAE
:100D3000C7CF809152028F7DC3CF809152028F7BAB
:100D4000BFCF809152028F77BBCF80915202837FB9
:100D5000B7CF90915202892F97FB87F98058B0CF77
:100D6000882361F010923A010E942B1D9093390163
:100D70008093380182E00E94AA1264CF80913A01E8
:100D800081110FC080913801909139010E94371D67
:100D9000883C910530F486E20E947F1186E20E9431
:100DA0005B1282E00E94B1124DCF882351F0109265
:100DB0003B010E942B1D909339018093380180E202
:100DC000DACF80913B0181110FC080913801909161
:100DD00039010E94371D883C910530F487E20E945A
:100DE0007F1187E20E945B1280E2DCCF0C945709EE
:100DF0000C9459090C9482050C94FA060895972FC7
:100E000070E02CE0929F600D711D1124FB0190E3B6
:100E1000899FE00DF11D1124EE0FFF1FE455FF4FD8
:100E2000859194910895FC01EE0FFF1FE455F94F51
:100E30008591949108950E94FF060E948C089C0160
:100E4000811540E4940708F097C0211580E3380726
:100E500008F0FAC0203E310508F074C0203C31058E
:100E600008F0E5C0283A310588F4253A310508F044
:100E7000E2C02130310509F477C0C9010497813AF5
:100E8000910508F471C030E020E06EC0C901885AB5
:100E900091094597C0F7283A310509F4FEC0293A6F
:100EA000310509F4FDC02A3A310509F4FCC02B3A9A
:100EB000310509F4FBC02C3A310509F4FAC02B3B8B
:100EC000310509F4F9C02C3B310509F4F8C02D3A7D
:100ED000310509F4F7C0203B310509F4F6C02E3A7C
:100EE000310509F4F5C02F3A310509F4F4C0213B6E
:100EF000310509F4F3C0223B310509F4F2C0233B6C
:100F0000310509F4F1C0243B310509F4F0C0253B5B
:100F1000310509F4EFC0263B310509F4EEC0273B4B
:100F2000310509F4EDC0283B310509F4ECC0293B3B
:100F3000310509F4EBC02A3B310509F4EAC020E091
:100F400034E412C0211590E2390780F42F3F3105B7
:100F500009F050F4283E310538F0C901805F91094D
:100F60003065409708F08FCFC9010895C9019F707F
:100F70000E9413079C01F8CF8115944508F041C0E9
:100F8000211583E5380708F06AC0211592E5390775
:100F900038F5211541E5340708F05CC0211580E5DE
:100FA000380708F454C0C90134E0969587953A95FE
:100FB000E1F78370422F46954695437090E2499F32
:100FC000A0011124582B822F837021E030E002C051
:100FD000220F331F8A95E2F7242B352B3C68C4CFB0
:100FE000C9018370992741E050E002C0440F551FAA
:100FF0008A95E2F72695269580E2289F9001112494
:10100000EBCF211596E5390748F4922F8827211553
:101010003545C8F59C01246F306AA6CFC9019056AA
:101020003F708115904108F02ECF30629DCFC901ED
:10103000805C91099DCF253A310549F1263A310569
:1010400049F522E830E490CF3327306C8DCF3F70E4
:10105000306A8ACF322F2227216F306A85CFC901AB
:101060008370992741E050E002C0440F551F8A95D4
:10107000E2F72695269580E2289F90011124242BE3
:10108000352B3A6871CF88279F719C01CECF21E81C
:1010900030E46ACF23E830E467CF22EE34E464CF53
:1010A00029EE34E461CF2AEE34E45ECF25EB34E45C
:1010B0005BCF26EB34E458CF23EB34E455CF24EB5D
:1010C00034E452CF27EB34E44FCF2CEC34E44CCF54
:1010D0002DEC34E449CF23E835E446CF2AE835E463
:1010E00043CF22E935E440CF24E935E43DCF21E286
:1010F00036E43ACF23E236E437CF24E236E434CF85
:1011000025E236E431CF26E236E42ECF27E236E47C
:101110002BCF2AE236E428CF803E910581F1C8F436
:101120008133910509F462C048F48932910509F4CC
:1011300056C08A32910509F460C00895893391053B
:10114000B9F082389105A1F08533910509F440C0CA
:101150000895863E910561F138F4823E9105B1F023
:10116000833E9105E1F00895873E910551F1089580
:10117000209152022370D9F080EE90E008952091E2
:10118000520220FF14C089E390E00895209152029A
:1011900022FF0DC024FD09C083EE90E00895209148
:1011A000520222FD31C024FF02C090E080E0089589
:1011B0002091520223FFFBCF24FDF7CF87EE90E072
:1011C00008952091520223FFEECF86EE90E008951D
:1011D0002091520225FFEBCF89E290E00895209103
:1011E000520225FFE4CF85E390E00895209152025A
:1011F00026FFDDCF8AE290E008952091520226FF7B
:10120000D6CF81E390E0089582EE90E008950895AE
:101210000F931F93CF938C01FB018281811106C034
:10122000C1E08C2FCF911F910F910895C09149017A
:10123000C11125C00531104799F70E94070981E0C7
:10124000809349010E942B1D909348018093470190
:1012500010923C0110923E0110923D01109240010B
:1012600010923F01109242011092410110924401EC
:10127000109243011092460110924501D2CF809105
:101280004701909148010E94371D883C910540F626
:1012900080913C01E82FF0E0EE0FFF1FE35CFE4F72
:1012A000118300838F5F80933C01C0E0BACF0C9420
:1012B0007E050C947F05CF93DF9385B7806885BF4B
:1012C00085B7806885BFA4E1B1E040E251E0C1E0AC
:1012D000D0E08D91E82FE295EF70F0E061A18F7082
:1012E0009E0101C0220F8A95EAF7922F90959623CE
:1012F00091A382A1822B82A34A175B0751F7A0E238
:10130000B1E044E251E0C1E0D0E08D91E82FE295F8
:10131000EF70F0E061A18F709E0101C0220F8A95ED
:10132000EAF7922F9095962391A382A1822B82A314
:101330004A175B0751F71092530110925201109215
:101340004B0110924A0110925501109254011092D3
:101350004D0110924C0110925701109256011092BB
:101360004F0110924E0110925901109258011092A3
:10137000510110925001DF91CF910C94F6063F92EB
:101380004F925F926F927F928F929F92AF92BF9295
:10139000CF92DF92EF92FF920F931F93CF93DF9341
:1013A00000D000D0CDB7DEB704E111E01A82198277
:1013B000EE24E394F12C92E5692E91E0792E33240A
:1013C0003394D8018D918D01E82FE295EF70F0E014
:1013D00091A18F70570101C0AA0C8A95EAF7892F55
:1013E0008A2981A382A15A2C5094852182A3B0EA34
:1013F000BA95F1F7A701098002C0440F551F0A945E
:10140000E2F74A01809490948AE491E09C838B8374
:1014100060E271E0412CAB81BC818D919D91BC83D8
:10142000AB83DB01DD90BD012D2D22952F7030E0C7
:10143000D90190962C9130E0BD2DBF70DB2ED901E3
:1014400002C0B595A795DA94E2F72B813C81225032
:101450003109A0FD72C06C01C42AD52AD9011196A8
:10146000DC92CE922D913C918217930711F0442487
:1014700043948B819C816816790669F681A1582274
:1014800051A282A1A82AA2A2442041F030925A017E
:101490000E942B1D90935C0180935B01A981BA810E
:1014A0001196BA83A9831C9709F08BCF80915A01BA
:1014B000882351F180915B0190915C010E94371D5E
:1014C000069710F180914A0190914B01909353013E
:1014D0008093520180914C0190914D019093550160
:1014E0008093540180914E0190914F019093570148
:1014F0008093560180915001909151019093590130
:101500008093580110925A010E94F80681E00F90D2
:101510000F900F900F90DF91CF911F910F91FF903F
:10152000EF90DF90CF90BF90AF909F908F907F9083
:101530006F905F904F903F9008956C01C820D92024
:101540008DCFE82FF0E0EE0FFF1FEE5AFE4F8081A7
:101550009181089508959C01CB016BB1542F509552
:1015600056236BB1462B6FB7F894820F931F281741
:10157000390711F46FBF0895F90171919F01E8E0F7
:101580004BB9000000C077FF5BB9770F000000C0C7
:1015900000C000C05BB900C0EA9591F7E8CFFC013C
:1015A0009AB1942B9AB99B01220F331F620F731FBC
:1015B000CF010E94AB0A87EC90E00197F1F700C0E1
:1015C0000000089548E00C94CF0AAF92BF92CF92EA
:1015D000DF92EF92FF920F931F93CF93DF937C01E3
:1015E000E901842F242F662309F43FC0C42ED12C97
:1015F0008FEF90E0861B9109489F8001499F100D55
:101600001124212F812F9927C81AD90A9CE3A92ECA
:10161000B12CC701B5010E949E29FB01BC01C69EE9
:10162000C001C79E900DD69E900D1124B5010E9459
:101630009E29E330F10509F443C080EFE816F10478
:1016400068F4E130F10591F13297A1F18CE3E816ED
:10165000F10440F180E020E040E007C0E430F10513
:1016600099F1842F861B3597A9F7E42FF0E0E75412
:10167000F84F4491E22FF0E0E754F84F9491E82FAF
:10168000F0E0E754F84FE49149839883EA83DF91CF
:10169000CF911F910F91FF90EF90DF90CF90BF906F
:1016A000AF900895812F262F210FDFCF812F242F78
:1016B000461BDBCF862F810FE42F412F2E2FD5CF56
:1016C000E42FE61B842FF9CF842F462F410FCDCF77
:1016D00088E090E00C94D429AB01BC0188E090E054
:1016E0000C94F229CF93DF9300D000D0CDB7DEB7B2
:1016F000E4E3F2E083E0808311828FEF82838383CF
:101700008091340290913502A0913602B091370257
:1017100089839A83AB83BC83BC01CD010F900F906A
:101720000F900F90DF91CF910C946C0B809134024D
:10173000ECE3F2E080FF06C066E070E08CE392E04C
:101740000C94E20A118210821282339682E0EE3407
:10175000F807C1F7F1CFECE3F2E0818360834283C5
:10176000339692E0EE34F907C1F70C94960BEF92A2
:10177000FF920F931F93CF93DF9300D00F92CDB7BB
:10178000DEB7182FE92EF62E042F809134029091A7
:101790003502A0913602B0913702809338029093BF
:1017A0003902A0933A02B0933B028091340280FF49
:1017B0001FC09E012F5F3F4F812F9E2D0E94E50A83
:1017C0008091380210FB87F980933802169580913A
:1017D00039028078182BE0FA17F910933902F09249
:1017E0003A0200933B024B8169818A810E94AB0BD4
:1017F0000F900F900F90DF91CF911F910F91FF905D
:10180000EF9008950F931F93CF93DF9300D000D0F4
:101810000F92CDB7DEB789839D83062F142F809159
:10182000340280FF54C0982F9E77923091F58981C1
:101830009D810E94B70B80913402B981B0FB87F97A
:1018400080933402B695809135028078B82B8D81D3
:1018500080FBB7F9B093350200933602109337023C
:101860008091340290913502A0913602B0913702F6
:1018700089839A83AB83BC83BC01CD010F900F9009
:101880000F900F900F90DF91CF911F910F910C94BB
:101890006C0B982F96959F732EE3290F2F7324308E
:1018A00018F410913702C7CF965C9F73993018F6E1
:1018B000881F8827881F909135029D83990F982B48
:1018C0009983AD81A7FBAA27A0F9AD83B4CF0F9070
:1018D0000F900F900F900F90DF91CF911F910F916C
:1018E0000895E4E3F2E02081221F2227221F309195
:1018F0003502432F440F842F822B37FB992790F911
:10190000089668E671E00E94B229438162810C94D6
:10191000020C20913402221F2227221F309135020F
:10192000432F440F842F822B37FB992790F988305F
:10193000910540F4805A9E4F4091370260913602E3
:101940000C94020C089768E671E00E94B229F4CF6B
:1019500060913602683F90F4685F80913402881F7E
:101960008827881F90913502292F220F97FB9927EE
:1019700090F940913702822B0C94020C6FEFEDCF5F
:1019800060913602683090F0685080913402881F70
:101990008827881F90913502292F220F97FB9927BE
:1019A00090F940913702822B0C94020C60E0EDCF4D
:1019B00040913702483F90F4485F80913402881F7D
:1019C0008827881F90913502292F220F97FB99278E
:1019D00090F960913602822B0C94020C4FEFEDCF00
:1019E00040913702483090F0485080913402881F6F
:1019F0008827881F90913502292F220F97FB99275E
:101A000090F960913602822B0C94020C40E0EDCFED
:101A1000CF93DF9300D000D0CDB7DEB790913402E2
:101A200090FF47C09178811132C092609093340248
:101A30008091340290913502A0913602B091370224
:101A400089839A83AB83BC83BC01CD010E946C0B5C
:101A500080913402982F9E77923009F5109272018E
:101A6000881F8827881F90913502292F220F97FB06
:101A7000992790F94091370260913602822B0F909E
:101A80000F900F900F90DF91CF910C94020C893141
:101A900010F09063CBCF8F73880F982BC7CF982F00
:101AA0009695925C9F739631D8F691E0909372016F
:101AB000D7CF0F900F900F900F90DF91CF91089597
:101AC0008091070281608093070281E08093730117
:101AD0000E948C1C811104C00E946B1C0E94720B1E
:101AE0000E94680B60933402709335028093360233
:101AF000909337026E7761F40E94720B0E94680B1C
:101B000060933402709335028093360290933702CB
:101B100081E0809372018091340280FF04C0869539
:101B20008F730C94080D08958091340286958F73FD
:101B30008F5F893108F081E00C94080DCF93DF931B
:101B400000D000D0CDB7DEB790913402892F8E7FC0
:101B500090FF81608093340280913402909135022D
:101B6000A0913602B091370289839A83AB83BC83FC
:101B7000BC01CD010E946C0B8091340280FF0AC031
:101B800086958F730F900F900F900F90DF91CF91EC
:101B90000C94080D109272019FEFA0E7B2E09150F3
:101BA000A040B040E1F700C000000F900F900F90F0
:101BB0000F90DF91CF910C94960BCF93C82F80910B
:101BC0007001909171010E94371DEC2FF0E0EB54F1
:101BD000F94FE491E817190609F010F50E942B1D42
:101BE0009093710180937001E0916F01F0E0E754F0
:101BF000F94F449180913402881F8827881F909163
:101C00003502292F220F97FB992790F96091360210
:101C1000822B0E94B70B80916F018F5F80936F01C1
:101C2000CF910895CF93C82F80916D0190916E014F
:101C30000E94371DEC2FF0E0EE54F94FE491E817C5
:101C4000190609F0E8F40E942B1D90936E01809311
:101C50006D01409137026091360280916B01909145
:101C60006C010E94B70B80916B0190916C01019601
:101C700068E671E00E949E2990936C0180936B014D
:101C8000CF910895CF92DF92EF92FF921F93CF935F
:101C9000DF93182F8091690190916A010E94371D8E
:101CA000E12FE695F0E0EE54F94FE491E8171906BC
:101CB00009F0C0F50E942B1D90936A018093690181
:101CC0008CE3E82E82E0F82ED0E0C0E098E6C92E42
:101CD000DD24D39480916701909168018C0F9D1F42
:101CE000B6010E949E299701409137026091360209
:101CF0000E94E50AEC9683E0E80EF11CC83681E00C
:101D0000D80741F70E94960B809167019091680176
:101D100010FF10C00196BE010E949E299093680199
:101D200080936701DF91CF911F91FF90EF90DF903B
:101D3000CF9008950197F2CFAF92BF92CF92DF92EA
:101D4000EF92FF920F931F93CF93DF93C82FDD2461
:101D5000DA9480FD02C0DD24D394809165019091D6
:101D600066010E94371DC695EC2FF0E0E155F94F52
:101D7000E491E817190611F008F053C00E942B1DDA
:101D80009093660180936501CCE3D2E010E000E01F
:101D900097E0A92EB12C198218821A8287E0E82ECA
:101DA000F12CC12C809164018C0D87FD8A5F082E77
:101DB000000C990B80179107E9F4209137022E9DB2
:101DC000C0012F9D900D1124B5010E94B229462F0C
:101DD00080913402881F8827881F90913502592FDF
:101DE000550F97FB992790F99E0160913602852B3C
:101DF0000E94E50ACD0C81E0E81AF10899F60F5F20
:101E00001F4F23960630110531F60E94960B8091E4
:101E1000640191E0D91212C081110EC085E0809357
:101E20006401DF91CF911F910F91FF90EF90DF90B0
:101E3000CF90BF90AF9008958150F1CF90E0019680
:101E4000B8010E94B229EBCFBF92CF92DF92EF92FE
:101E5000FF920F931F93CF93DF93CDB7DEB76297B7
:101E60000FB6F894DEBF0FBECDBF182F8091620170
:101E7000909163010E94371DE12FF0E0E455F94F86
:101E8000E491E817190611F008F07AC00E942B1DA2
:101E900090936301809362018E010F5F1F4FF12CBD
:101EA000E12C6801D80111961C9211971C92129690
:101EB0001C92B12C9091000180916101B99E800D1E
:101EC000112486300CF085E087FD80E0082E000CA0
:101ED000990B8E159F05A1F480913402881F8827E5
:101EE000881F90913502592F550F97FB992790F92C
:101EF00098014091370260913602852B0E94E50AD5
:101F0000B394B7E0BB12D6CFEFEFEE1AFE0A0D5F27
:101F10001F4FF6E0EF16F10429F62CE332E009E05A
:101F200010E056E0E52EF12CC801B7010E94B2295D
:101F3000FC01EE0FFF1FE80FF91FEC0DFD1D818165
:101F4000D90111968C93119780818C93828112967E
:101F50008C930F5F1F4F2D5F3F4F0F30110521F7FF
:101F60000E94960B90910001809161019130E1F403
:101F70008A3FB4F489EF809361018FEF8093000171
:101F800062960FB6F894DEBF0FBECDBFDF91CF9142
:101F90001F910F91FF90EF90DF90CF90BF90089529
:101FA000815080936101ECCF8D302CF08CE08093D8
:101FB000610181E0E3CF8F5FF4CFCF93DF93809116
:101FC0005F01909160010E94371D883E934028F187
:101FD0000E942B1D9093600180935F0180915D01B1
:101FE00090915E0101968170992790935E01809394
:101FF0005D01CCE3D2E09E01409137026091360250
:1020000090E080E00E94E50A239682E0CE34D80773
:1020100091F7DF91CF910C94960BDF91CF910895BA
:1020200080917201882371F18091340286958F73BB
:102030009EE3980F9F73943018F482500C94DD0D3A
:102040009AE3980F9F73933018F486500C94120EF5
:1020500097E3980F9F73963018F489500C94420EB2
:1020600091E3980F9F73963018F48F500C949C0E48
:102070009BE2980F9F73933018F485510C94240FB2
:102080000C94DD0F08959093790180937801089561
:10209000E0917801F0917901309721F00190F08181
:1020A000E02D099480E00895E0917801F0917901A4
:1020B000309721F00280F381E02D09940895E0919A
:1020C0007801F0917901309721F00480F581E02DBD
:1020D00009940895209176013091770128173907E6
:1020E00071F09093770180937601E0917801F091FF
:1020F0007901309721F00680F781E02D0994089549
:1021000020917401309175012817390771F090936F
:10211000750180937401E0917801F0917901309715
:1021200021F00084F185E02D0994089508950C9420
:1021300096100E94221D0E945B090E94EC1D0C94C7
:10214000600D5F926F927F928F929F92AF92BF923B
:10215000CF92DF92EF92FF920F931F93CF93DF9373
:1021600000D000D00F92CDB7DEB70E94BF099BE729
:10217000A92E91E0B92E10E000E088248394912CE0
:10218000502E802F0E94A10A7C01F501C190D190B0
:102190005F01C816D90609F45DC08091070281FD70
:1021A0000E94AA0A90E080E0CE24DF243401082EA9
:1021B00002C0660C771C0A94E2F7960126213721AB
:1021C000232B09F442C089835A82E620F72081E05C
:1021D000EF2809F480E08B830E942B1D8160782F0B
:1021E0009D838C8349815A816B818D810E94561118
:1021F000000F111FF801E558FE4F8081918168267C
:102200007926718260820E9499200E9448109091E4
:102210007A018917B1F10E94481080937A010F90DA
:102220000F900F900F900F90DF91CF911F910F9112
:10223000FF90EF90DF90CF90BF90AF909F908F90E6
:102240007F906F905F900C94FC0601968C30910506
:1022500009F0ACCF0F5F1F4F0430110509F090CF8C
:102260008FEF89838A831B820E942B1D8160782FC8
:102270009D838C8349815A816B818D810E94561187
:10228000C2CF0F900F900F900F900F90DF91CF91D2
:102290001F910F91FF90EF90DF90CF90BF90AF9084
:1022A0009F908F907F906F905F900895CF93DF9372
:1022B000CDB7DEB72B970FB6F894DEBF0FBECDBFFC
:1022C0004F83588769877A878B871E8285E0FE0156
:1022D0003796DE01119601900D928A95E1F74981BA
:1022E0005A816B817C818D819E812B960FB6F894EB
:1022F000DEBF0FBECDBFDF91CF910C94CD178823E9
:1023000009F4D8C0823871F40E94481081FDD2C00F
:1023100089E30E94721B0E943C1C89E30E94AF1B50
:102320000C943C1C833859F40E94481080FDC2C0B4
:1023300083E50E94721B0E943C1C83E5EFCF84382A
:1023400059F40E94481082FDB5C087E40E94721BB8
:102350000E943C1C87E4E2CF9CEF980F913A18F45E
:102360000E94721BDDCF90E2980F983050F4877076
:1023700091E001C0990F8A95EAF7892F0E94F31B1B
:10238000CFCF9BE5980F933070F4853A31F0863AC1
:1023900039F083E890E00C946A1081E890E0FBCF7C
:1023A00082E890E0F8CF98E5980F953108F082C068
:1023B000883A09F440C0893A09F440C08A3A09F4DD
:1023C00040C08B3A09F440C08C3A09F440C08B3BC2
:1023D00009F440C08C3B09F440C08D3A09F440C078
:1023E000803B09F440C08E3A09F440C08F3A09F4AA
:1023F00040C0813B09F440C0823B09F440C0833BAC
:1024000009F440C0843B09F440C0853B09F440C056
:10241000863B09F440C0873B09F440C0883B09F47F
:1024200040C0893B09F440C08A3B09F440C090E0B9
:1024300080E00C94801082EE90E0FBCF89EE90E07B
:10244000F8CF8AEE90E0F5CF85EB90E0F2CF86EB07
:1024500090E0EFCF83EB90E0ECCF84EB90E0E9CF1E
:1024600087EB90E0E6CF8CEC90E0E3CF8DEC90E052
:10247000E0CF83E891E0DDCF8AE891E0DACF82E92E
:1024800091E0D7CF84E991E0D4CF81E292E0D1CF3F
:1024900083E292E0CECF84E292E0CBCF85E292E07D
:1024A000C8CF86E292E0C5CF87E292E0C2CF8AE24F
:1024B00092E0BFCF0895882309F44BC0823871F4AD
:1024C0000E94481081FF45C089E30E94721B0E9450
:1024D0003C1C89E30E94AF1B0C943C1C833859F4CC
:1024E0000E94481080FF35C083E50E94721B0E9445
:1024F0003C1C83E5EFCF843859F40E94481082FFDA
:1025000028C087E40E94721B0E943C1C87E4E2CF33
:102510009CEF980F913AF0F290E2980F983050F4B7
:10252000877091E001C0990F8A95EAF7892F0E9480
:10253000F91BD2CF9BE5980F933020F490E080E018
:102540000C946A10885A853120F490E080E00C9455
:1025500080100895882321F00E94F31B0C943C1CEA
:102560000895882321F00E94F91B0C943C1C0895C7
:102570008F929F92AF92BF92DF92EF92FF920F9352
:102580001F93CF93DF9300D000D00F92CDB7DEB76B
:102590007C016D837983FC01058102950F701281A6
:1025A00011110E94121C0E946B1BD82E882371F0FF
:1025B0001123A1F08D81805E883080F082E00E943E
:1025C000551B0E946B1B91E0D82ED926E981E2951C
:1025D000EF70F0E0EF5CF54D0C94C629D12CF6CFEE
:1025E00009810F70F981F07F11F00295007F1123AE
:1025F000B1F0002361F08D81805E883018F02D816C
:10260000211109C0802F0E94F31B0E943C1C8D8168
:102610000E947F1115C0802F0E94041CF6CF8D816F
:102620000E945B12002361F08D81805E883018F07B
:102630003D81311129C0802F0E94F91B0E943C1C52
:10264000DD2009F4D3C10E94481B80FDCFC1F701F2
:1026500012820E94421B0E948B19C7010E9407151B
:102660000E94421B0F900F900F900F900F90DF91E0
:10267000CF911F910F91FF90EF90DF90BF90AF909F
:102680009F908F900C94AD19802F0E940A1CD6CF7A
:1026900049814F70B42E5981507F503219F0B29455
:1026A00080EFB8228D81882369F0813029F11123D0
:1026B00069F1002359F0F701858180FFA8CF8F7061
:1026C000858304C0112361F0011104C08B2D0E9489
:1026D000AA12B6CF8B2D0130D1F70E94261CB0CFA5
:1026E000011106C00E94291C8B2D0E94B112A8CF97
:1026F000013009F4A5CFF6CF112321F0063008F000
:102700009FCFE4CF053008F09BCFEECF002361F3DD
:102710008D810E945B1294CF898186958695837006
:1027200069F0813009F08CCF8D81998193701111FE
:1027300002C090E080E00E94801082CF8D8199815C
:102740009370111102C090E080E00E946A1078CF6F
:102750008D81112329F00E94A71F0E948E2070CF27
:102760000E940F20FACF8981837009F05FC0111198
:1027700067CF2D81229526952770220F220F8D81FC
:102780008F7090E0B0E0A0E04C015D01022E04C02B
:10279000880C991CAA1CBB1C0A94D2F7FD8160E02E
:1027A00070E0CB01F4FF0FC06FE070E080E090E0DC
:1027B00004C0660F771F881F991F2A95D2F760956E
:1027C00070958095909529812695269523702D8367
:1027D0002230B1F0233019F19B01AC0128293929AD
:1027E0004A295B2929833A834B835C833D81698134
:1027F0007A818B819C813130B1F00E94181920CFF1
:102800009B01AC01282939294A295B2929833A836C
:102810004B835C83CA01B9010E94421911CF0E9407
:102820001819C501B4010E94EE180ACF869511232C
:1028300011F089818170882309F402CF2D812295BE
:1028400026952770220F220F8D818F7090E0B0E0C7
:10285000A0E04C015D01022E04C0880C991CAA1C4A
:10286000BB1C0A94D2F73D8160E070E0CB0134FFDD
:102870000FC06FE070E080E090E004C0660F771F4B
:10288000881F991F2A95D2F760957095809590952D
:1028900049814695469543704D834230B1F04330AF
:1028A00019F19B01AC01282939294A295B2929837F
:1028B0003A834B835C833D8169817A818B819C81E2
:1028C0003130B1F00E941E1ABBCE9B01AC01282909
:1028D00039294A295B2929833A834B835C83CA01BE
:1028E000B9010E94481AACCE0E941E1AC501B4015B
:1028F0000E94F419A5CE3D81323F09F447C080F40F
:10290000303F79F1313FD9F1832F805E8031D0F0B3
:10291000112309F456C001117ACE89818F7133C019
:102920004D81433FD1F1443F99F7112309F43FC052
:1029300089818F7189830E948B1963E089810E944C
:102940004C1B7ECE5D815F705D8389818F71112309
:1029500021F00E948B198D81BACE0E94AD198D8114
:10296000C4CE112341F0053008F06ACE89818F7101
:102970000E94D21965CE063008F062CEF7CF898169
:102980008F71112339F00E948B195ACE89818F7172
:102990001123C9F30E94AD1953CE112329F0898167
:1029A0008F710E9476194CCE0E946C1949CE81E03D
:1029B0000E94551B023008F443CE82E00E94551B52
:1029C0003FCE0111A5CE89818F71E4CF49814F702F
:1029D0006D81C7010E947B050E94671831CE498135
:1029E0004F706D81C7010E94FE062ACE0F900F9096
:1029F0000F900F900F90DF91CF911F910F91FF904B
:102A0000EF90DF90BF90AF909F908F9008950F93BD
:102A10001F93CF93DF93EC018B819C81892B29F04D
:102A20008881998189238F3F29F4DF91CF911F916C
:102A30000F910895CE010E9494058823B1F3688117
:102A400079818A810E94181B8C010E94721A0E944F
:102A5000E318B801CE01DF91CF911F910F910C9433
:102A6000B8120E94121C0E94231C0E94E51B0E94A7
:102A70003C1C0E947F210E948E2090E080E00E94FA
:102A80006A1090E080E00C9480100E94011C0C946D
:102A900031150E940C1B282F892F82958F70903C36
:102AA00080F48A30B0F4843020F4823090F480E0F6
:102AB00008958630E1F781E0203E88F0213FB9F7A4
:102AC0000EC08C3011F08F3091F793FB882780F97E
:102AD000089581E0203F39F018F4203E40F7089532
:102AE000243F29F7FCCF0895CF93DF9300D000D087
:102AF0000F92CDB7DEB70F900F900F900F900F9001
:102B0000DF91CF910895CF93DF9300D000D000D014
:102B1000CDB7DEB726960FB6F894DEBF0FBECDBF99
:102B2000DF91CF9108951F93CF93DF93E0918401BC
:102B300016E0809185018E1304C0DF91CF911F9123
:102B40000895CE2FD0E01E9FF0011124EA57FE4FCA
:102B50004081518162817381848195810E948315B6
:102B6000FE013196E770E5CF4091B6015091B70173
:102B70006091B8017091B9018091BA019091BB0147
:102B80000C9483151F93CF93DF938091BB01807FBB
:102B9000C1F48091B8018823A1F080918401C09193
:102BA00085016091B6017091B7014091B9015091D2
:102BB000BA01D62FD723DA01A095B09516E0C81335
:102BC00004C0DF91CF911F91089590E04115510508
:102BD00011F0DF3F31F401968770F1CF2A0F3B1FD0
:102BE00017C0189FF001199FF00D1124EA57FE4FEE
:102BF00021812713F0CF20812613EDCF22812111CF
:102C0000EACF238134812417350740F3241B350B89
:102C1000283C310500F72091BB012F7020612093E3
:102C2000BB0126E0289FF001299FF00D1124E557F4
:102C3000FE4F80818F708061808386EB91E00E94DF
:102C40000715DF91CF911F910C9493159F92AF922E
:102C5000BF92CF92DF92EF92FF920F931F93CF9389
:102C6000DF93CDB7DEB72B970FB6F894DEBF0FBE5C
:102C7000CDBF8C0185E0F801DE01179601900D9221
:102C80008A95E1F7D8014C9111965C9111971296B3
:102C9000EC9012978091B9019091BA01009709F4D4
:102CA0006BC12091B6013091B701632F62236F3F52
:102CB00009F462C11396CD90DC909090B8019920F0
:102CC00009F4F8C0C816D90608F43FC0F601E81B9D
:102CD000F90BCF01FF24F394883C910508F0F12C07
:102CE00086EBA82E81E0B82E8091BB01982F907FB3
:102CF000FF2009F4B7C0911180C0FE2C35132AC003
:102D0000241328C0E11026C08F7080618093BB011E
:102D10000E94B415C5010E9407158091BB01D8011E
:102D200015968C938F2D2B960FB6F894DEBF0FBEA1
:102D3000CDBFDF91CF911F910F91FF90EF90DF906A
:102D4000CF90BF90AF909F900895809590958C0DF7
:102D50009D1DC0CFCD2829F0842F85238F3F09F0FA
:102D600019C180E0B82FB170DB2EE0918401209171
:102D7000850136E080FD1CC0EE20A1F28091BB01F0
:102D800081608093BB01F12CCDCF8E2F90E03E9FD0
:102D9000F0011124EA57FE4F6181651306C060817E
:102DA000641303C062816E11E7CFFC013196E770B6
:102DB000E213EBCF4F8358878F8198850E940C1BBD
:102DC000292F22952F70903260F0225F2F702230D1
:102DD00078F49F7051F0F8019581907F31F4D12CF7
:102DE0000AC09F7011F08823D1F3805E8830B8F359
:102DF000C8010E940715FD2C95CF351306C024137A
:102E000004C0D801EE2009F47BC04F8358878F811E
:102E100098850E944915882309F4B8C0EE2009F46A
:102E2000B5C08091BB01803270F02091B601309125
:102E3000B7013A8329831B82DD82CC828E83CE0147
:102E400001960E94071586E0F801A6EBB1E001901B
:102E50000D928A95E1F70E94C2150E94B415FF24D5
:102E6000F39460CF911113C07C2DDB86CA866E2D42
:102E70008B850E94741586EB91E00E94071586E011
:102E8000F50111928A95E9F70E94B4154BCF3513DD
:102E9000BCCF2413BACFE110B8CFD80115968C93CC
:102EA000C8010E94071586E0F50111928A95E9F79D
:102EB000F92C38CFC816D90688F1B601681B790BF2
:102EC000CB01F12C883C910508F047C0FE2CEE2088
:102ED00009F45CC0351330C024132EC08091BB01AF
:102EE00080FD21C0982F907FF1F0D80115968C932A
:102EF0001597903F39F0982F907F905F8F70892BB6
:102F000015968C93C8010E94071586E0F801A6EB80
:102F1000B1E001900D928A95E1F7B6CF809590953A
:102F20008C0D9D1DCECF86E0F801A6EBB1E001909F
:102F30000D928A95E1F7F6CE4F8358878F81988559
:102F40000E94491581117FCF8091BB0181608093E0
:102F5000BB01C8010E940715E5CE7C2DDB86CA8621
:102F60006E2D8B850E94741586E0E6EBF1E0DF01A3
:102F70001D928A95E9F788CFEE2041F04F8358875C
:102F80008F8198850E94491581115DCFC8010E94EB
:102F9000071565CF81E08E25E5CE1F93CF93DF9394
:102FA000CDB7DEB72C970FB6F894DEBF0FBECDBFFE
:102FB0004F83588769877A878B879C87CE010796CE
:102FC0000E942616882369F08A859B85892B39F013
:102FD0004F815885842F85238F3F09F071C016E0FB
:102FE0005FC086E0FE013796DE01119601900D92DA
:102FF0008A95E1F78A859B85892B89F388859F814E
:1030000089238F3F61F32091850130E0C90101964A
:1030100087709927409184014817190671F40E941E
:103020004515109285011092840186E0E6EBF1E0EF
:10303000DF011D928A95E9F7D2CF96E0929FD001E9
:10304000939FB00D1124AA57BE4FFE0131960190F7
:103050000D929A95E1F7809385010E949315BFCF59
:10306000819FC00111248A579E4F0E9426168823F3
:10307000E9F0E09184011E9FF0011124EA57FE4F10
:103080004081518162817381848195810E94831581
:103090008091840190E00196877099278093840144
:1030A00080918401909185018913DACF2C960FB617
:1030B000F894DEBF0FBECDBFDF91CF911F91089571
:1030C00069857A858B859C850E94831588CFEF92D0
:1030D000FF920F931F93CF93DF938C01892B89F07D
:1030E000F12CEE24E394E8012196F80184918437D1
:1030F00009F457C0A0F4823009F43EC048F481308E
:10310000D1F0DF91CF911F910F91FF90EF90089533
:103110009CEF980F9037A8F70E947F110AC085375F
:1031200009F44CC09CE7980F903758F78F770E94AE
:103130005B128E0116C00E5F1F4FFE01849190E25C
:10314000980F983060F48770FE2D01C0FF0F8A95AC
:10315000EAF78F2F0E94151C0E943C1C02C00E949F
:103160007F118F2D815008F4BECFEFE9FFE031973A
:10317000F1F700C00000F6CF0E5F1F4FFE018491F3
:1031800090E2980F983050F48770FE2D01C0FF0F29
:103190008A95EAF78F2F0E941B1CDECF0E945B12DC
:1031A000E0CF0E5F1F4FFE01C491C150D0F28FE9F6
:1031B0009FE00197F1F700C00000F7CF0E5F1F4FAF
:1031C000FE01F490CECF08956093DE017093DF018D
:1031D0008093E0019093E1010C943115CF93DF933C
:1031E00000D000D0CDB7DEB769837A838B839C8310
:1031F0008091DE019091DF01A091E001B091E101A9
:1032000029813A814B815C81822B932BA42BB52B96
:103210008093DE019093DF01A093E001B093E10180
:103220000F900F900F900F90DF91CF910C9431156C
:10323000CF93DF9300D000D0CDB7DEB769837A8318
:103240008B839C838091DE019091DF01A091E0014E
:10325000B091E10129813A814B815C8182239323E2
:10326000A423B5238093DE019093DF01A093E001B6
:10327000B093E1010F900F900F900F90DF91CF91DD
:103280000C943115CF93DF9300D000D0CDB7DEB7CB
:1032900069837A838B839C838091DE019091DF0127
:1032A000A091E001B091E10129813A814B815C81DB
:1032B00082279327A427B5278093DE019093DF010F
:1032C000A093E001B093E1010F900F900F900F9049
:1032D000DF91CF910C9431151092DA011092DB013D
:1032E0001092DC011092DD010C94311541E050E0A8
:1032F00060E070E004C0440F551F661F771F8A9579
:10330000D2F74093DA015093DB016093DC017093B4
:10331000DD010C943115282F81E090E0A0E0B0E0B1
:1033200004C0880F991FAA1FBB1F2A95D2F740918E
:10333000DA015091DB016091DC017091DD01842B99
:10334000952BA62BB72B8093DA019093DB01A093EA
:10335000DC01B093DD010C94311541E050E060E0F8
:1033600070E004C0440F551F661F771F8A95D2F77F
:1033700040955095609570958091DA019091DB01B0
:10338000A091DC01B091DD0184239523A623B7230E
:103390008093DA019093DB01A093DC01B093DD010F
:1033A0000C943115282F81E090E0A0E0B0E004C03B
:1033B000880F991FAA1FBB1F2A95D2F74091DA01E7
:1033C0005091DB016091DC017091DD01842795272C
:1033D000A627B7278093DA019093DB01A093DC0145
:1033E000B093DD010C943115CF93DF9300D000D062
:1033F000CDB7DEB769837A838B839C838091DA01B2
:103400009091DB01A091DC01B091DD0129813A812D
:103410004B815C81822B932BA42BB52B8093DA01FB
:103420009093DB01A093DC01B093DD010F900F902E
:103430000F900F90DF91CF910C943115CF93DF93C4
:1034400000D000D0CDB7DEB769837A838B839C83AD
:103450008091DA019091DB01A091DC01B091DD0156
:1034600029813A814B815C8182239323A423B52354
:103470008093DA019093DB01A093DC01B093DD012E
:103480000F900F900F900F90DF91CF910C9431150A
:10349000CF93DF9300D000D0CDB7DEB769837A83B6
:1034A0008B839C838091DA019091DB01A091DC01F8
:1034B000B091DD0129813A814B815C81822793277C
:1034C000A427B5278093DA019093DB01A093DC0158
:1034D000B093DD010F900F900F900F90DF91CF917F
:1034E0000C9431150895E82F2CE0929FE00D1124E3
:1034F0008E2F877041E001C0440F8A95EAF7E69568
:10350000E695E69585E0E89FF0011124E454FE4F2E
:1035100030E020E070E05191DF011197CB01022EE5
:1035200002C0969587950A94E2F781708195852768
:10353000842385278C932F5F3F4F2530310559F722
:103540000895E82F2CE0929FE00D11249E2F977094
:10355000E695E695E69585E0E89FF0011124E454B0
:10356000FE4F50E040E080E0219130E0092E02C0A3
:10357000369527950A94E2F721703327042E01C06F
:10358000220F0A94EAF7822B4F5F5F4F45305105B7
:1035900059F70895BF92CF92DF92EF92FF920F9367
:1035A0001F93CF93DF938C01C090DA01D090DB01A1
:1035B000E090DC01F090DD018091DE019091DF016F
:1035C000A091E001B091E101C82AD92AEA2AFB2A98
:1035D000CFE1D0E0BC2ED701C6010C2E04C0B695B9
:1035E000A795979587950A94D2F780FD0EC02197ED
:1035F00088F7B12C8B2DDF91CF911F910F91FF9008
:10360000EF90DF90CF90BF900895B8018C2F0E946B
:103610001B07019761F3EECFCF93DF93D82FC92F0C
:103620000E94CA1A6D2F7C2FDF91CF910C941B073B
:103630001F93CF93DF93162FD72F90918301992358
:1036400039F0862F972FDF91CF911F910C940C1B8F
:10365000882391F0862F972F0E94CA1AC82F682FAF
:10366000812F9D2F0E94731A612F7D2F8C2FDF9148
:10367000CF911F910C941B07862F972F0E94A11AA0
:10368000C82FF2CF8091E2018595859585950895A3
:103690008091E2018770089598E0899F900111243C
:1036A000622B6093E2010C948B199091E20180955A
:1036B00089238093E201282F277061F4282F082E98
:1036C000000C330B9217130629F085958595859587
:1036D0000C94AD1908959091E201977081E009F47E
:1036E00080E00895909113019923E1F090915202A6
:1036F00097FF18C0E82FE695E695E695EF3139F18A
:103700002091010130910201E20FF32FF11D87702A
:1037100021E030E001C0220F8A95EAF78181822BF7
:10372000818308952091010130910201F9013296BF
:103730009FEF40E05191851751F09F3F19F45111CF
:1037400001C0942F4F5F4E31A9F79F3F09F40895B0
:10375000290F311D97FD3A95F901828308959091C3
:103760001301992301F19091520297FF1CC0E82F99
:10377000E695E695E695EF3139F12091010130911A
:103780000201E20FF32FF11D877021E030E0A90163
:1037900002C0440F551F8A95E2F7CA0180959181B6
:1037A0008923818308952091010130910201F9015B
:1037B0003296205E3F4F9191891303C0DF0111972C
:1037C0001C92E217F307B9F7089581E090E0E091C9
:1037D0000101F0910201E80FF91F10820196803279
:1037E0009105A9F7089590910602982B90930602EF
:1037F0000895982F90958091060289238093060260
:10380000089510920602089590910502982B9093C6
:1038100005020895982F9095809105028923809341
:103820000502089510920502089590910402982BC4
:10383000909304020895982F909580910402892313
:103840008093040208951092040208958093E30186
:1038500008951092E3010895209101013091020131
:10386000F9013196205E3F4F80E0919191118F5F79
:10387000E217F307D1F70895E0910101F0910201F9
:10388000809106028083E0910101F0910201808124
:1038900090910502892B8083E0910101F091020152
:1038A000808190910402892B80839091E301992378
:1038B00061F0E0910101F09102018081892B808308
:1038C0000E942C1C81111092E301809101019091C2
:1038D00002010C9454106DEE7EEF90E080E00E94A7
:1038E000FE2960E082E090E00E94E02960E083E051
:1038F00090E00E94E02960E084E090E00E94E029EE
:1039000060E085E090E00E94E02940E050E0BA01EC
:1039100088E090E00C94F22990E080E00E94DA299F
:103920009C0181E02D3E3E4F09F080E0089582E049
:1039300090E00C94CC29682F82E090E00C94E02970
:1039400083E090E00C94CC29682F83E090E00C9405
:10395000E02984E090E00C94CC29682F84E090E08A
:103960000C94E02980915802843039F110920802B9
:1039700088E190E020E40FB6F894A8958093600069
:103980000FBE2093600080E00E94FC0683B7817F19
:10399000846083BF83B7816083BF7894889583B741
:1039A0008E7F83BF0FB6F894A895809160008861E0
:1039B00080936000109260000FBE089508950895EE
:1039C000CF930E94DE1C0E94BF090E94DF1CC0E052
:1039D0008C2F0E94A10A892B31F4CF5FC430C1F72C
:1039E00080E0CF91089581E0FCCF0E9445150E94B0
:1039F00048100C94FC061F921FB61F9211248F933F
:103A00009F93AF93BF9380910802811113C080915F
:103A10004E0290914F02A0915002B09151024196F6
:103A2000A11DB11D80934E0290934F02A0935002AE
:103A3000B0935102BF91AF919F918F911F901FBE84
:103A40001F90189582E084BD93E095BD9AEF97BDD5
:103A500080936E0008952FB7F89480914E02909154
:103A60004F02A0915002B09151022FBF0895CF9202
:103A7000DF92EF92FF929C014FB7F89480914E0233
:103A800090914F02A0915002B09151024FBF6C0132
:103A90007D01EE24FF24A90170E060E0C416D50684
:103AA000E606F70638F0821B930BFF90EF90DF904D
:103AB000CF9008950197F7CF1F921FB61F92112440
:103AC0008F939F93AF93BF9380914E0290914F023B
:103AD000A0915002B09151020196A11DB11D809399
:103AE0004E0290934F02A0935002B0935102BF91A7
:103AF000AF919F918F911F901FBE1F9018950E94AC
:103B00007525F8942FEF87EA91E621508040904088
:103B1000E1F700C0000087E090EBDC0180936102D8
:103B200090936202A0936302B093640288E19CE0E8
:103B30000FB6F894A895809360000FBE9093600034
:103B4000FFCFAF92BF92CF92DF92EF92FF920F938F
:103B50001F93CF93C0E0AA24A394B12CE82EF12C9C
:103B60008C2F0E94A10A6C0110E000E0C501002E1C
:103B700002C0880F991F0A94E2F78C219D21892B9E
:103B800099F0602F7C2F80E00E94FF06E816F9066E
:103B900059F481E0CF911F910F91FF90EF90DF904A
:103BA000CF90BF90AF9008950F5F1F4F0C3011055D
:103BB000E9F6CF5FC430A1F680E0ECCFCF93C82FF9
:103BC0008CE20E94A11D882321F08C2FCF910C94B0
:103BD000A11D80E0CF910895CF93DF9300D000D056
:103BE000CDB7DEB70E948C1C811102C00E946B1CF5
:103BF00095E6998308C00E94BF098FE39CE901976D
:103C0000F1F700C00000A981A150A983A111F3CF51
:103C100089E20E94DE1D811110C18AE20E94DE1D30
:103C200081110E946B1C85E00E94DE1D81110E94A3
:103C30007F1D0E94971C8093070287E00E94DE1D73
:103C4000882371F08BE10E94DE1D882309F4D1C026
:103C500090910702892F8D7F91FF826080930702E8
:103C6000809107020E949B1C0E94A91C90E09093E7
:103C700053028093520280EE0E94DE1D882341F0A1
:103C800090915202892F8E7F90FF81608093520223
:103C900089E30E94DE1D882341F090915202892F12
:103CA0008D7F91FF82608093520282EE0E94DE1D22
:103CB000882341F090915202892F8B7F92FF84607C
:103CC0008093520286EE0E94DE1D882341F090917F
:103CD0005202892F877F93FF88608093520283EE80
:103CE0000E94DE1D882341F090915202892F8F7E21
:103CF00094FF80618093520285E30E94DE1D882339
:103D000041F090915202892F8F7D95FF80628093C0
:103D1000520281E30E94DE1D882341F090915202FD
:103D2000892F8F7B96FF80648093520281E10E94ED
:103D3000DE1D882341F090915202892F97FB87F96D
:103D4000805880935202809152020E94AD1C87E2FB
:103D50000E94DE1D89838EE10E94DE1D882319F0FA
:103D6000B981B260B9838FE10E94DE1D882319F00A
:103D700029812460298380E20E94DE1D882319F0B6
:103D800039813860398381E20E94DE1D882319F071
:103D900049814061498382E20E94DE1D882319F037
:103DA00059815062598383E20E94DE1D882319F0F5
:103DB00089818064898384E20E94DE1D8823B1F1B9
:103DC00099819068998389810E94A41C3981232F4D
:103DD00030E050E040E029833A834B835C83CA01A2
:103DE000B9010F900F900F900F90DF91CF910C942D
:103DF000E4188EE00E94DE1D882339F090910702BE
:103E0000892F8B7F92FF846029CF80E10E94DE1D85
:103E100090910702882329F0892F877F93FF88607C
:103E20001DCF892F8E7F90FF816018CFA981A111AE
:103E3000CACF0E94A01C282FCBCF0F900F900F90BD
:103E40000F90DF91CF91089580910B0280FF12C0F7
:103E50006091060185E0689FB00111247595679512
:103E60007595679560387105A8F561157105A1F123
:103E7000862F089581FF09C06091060185E0689F43
:103E8000B001112475956795EDCF6091060182FD13
:103E90000AC080910C028823D1F0909105016091B5
:103EA0000601891728F085E0689FB0011124DACF58
:103EB000869FB001112485E0869F9001879F300D79
:103EC0001124692F70E0C9010E94B229CBCF65E0AF
:103ED00070E0CECF8FE7089581E0089580910B02C6
:103EE00080FF0CC06091040170E075956795759531
:103EF00067956115710549F1862F089581FF06C008
:103F00006091040170E075956795F3CF60910401AD
:103F100082FD0BC090910C029923A1F060910301E6
:103F200080910401961738F0682F70E060387105B1
:103F300000F38FE70895899FC001112470E00E946B
:103F4000B229F4CF61E070E0D7CF81E00895803FDF
:103F500031F40E94241F819580930F020895813FC0
:103F600019F40E94241FF8CF823F31F40E94241FCD
:103F7000819580930E020895833F19F40E94241FB7
:103F8000F8CF893F29F40E946E1F80931002089594
:103F90008A3F21F40E946E1F8195F7CF8B3F31F449
:103FA0000E946E1F81958093110208958C3F19F431
:103FB0000E946E1FF8CF843F31F480910D02816022
:103FC00080930D020895853F21F480910D02826057
:103FD000F7CF863F21F480910D028460F1CF873FB7
:103FE00021F480910D028860EBCF883F21F480910D
:103FF0000D028061E5CF8D3F31F480910B0281602D
:1040000080930B0208958E3F21F480910B02826011
:10401000F7CF8F3FB9F780910B028460F1CF909179
:104020000E02803F41F480910F0287FD10920F0233
:10403000992371F00895813F29F480910F02181699
:10404000ACF3F6CF823F81F497FFF2CF10920E02CD
:1040500080910F0290911002892B90911102892B6F
:1040600049F710920C020895833F19F4191674F35E
:10407000DFCF893F39F4809110021816CCF61092E8
:104080001002D6CF8A3F29F48091100287FFD0CF4B
:10409000F6CF8B3F39F48091110287FFC9CF109280
:1040A0001102C6CF8C3F29F4809111021816BCF37F
:1040B000BFCF843F31F480910D028E7F80930D023B
:1040C000B7CF853F21F480910D028D7FF7CF863FDA
:1040D00021F480910D028B7FF1CF873F21F48091F5
:1040E0000D02877FEBCF883F21F480910D028F7EF8
:1040F000E5CF8D3F31F480910B028E7F80930B02D0
:1041000097CF8E3F21F480910B028D7FF7CF8F3FA9
:1041100009F08ECF80910B028B7FF0CF8DE092E083
:104120000E945F100E942B1D90930A028093090247
:1041300008951F93CF93DF9300D000D000D0CDB768
:10414000DEB78091090290910A020E94371DAC01EE
:1041500080910C022091070130E0811106C020916E
:1041600008019AE0299F900111244217530788F013
:1041700020910E02A0910F02A98310911002B0911C
:104180001102BE8321110FC09A2F912B9B2B09F096
:10419000B2C026960FB6F894DEBF0FBECDBFDF913A
:1041A000CF911F9108958F3F19F08F5F80930C027C
:1041B000121624F40E94241F80930E0280910E0296
:1041C00087FF05C00E94241F819580930E022981DC
:1041D000121624F40E94241F80930F0280910F0274
:1041E00087FF05C00E94241F819580930F02809154
:1041F0000E02882309F455C030910F023D8333230A
:1042000009F44FC0282F880F330B440B550B29831B
:104210003A834B835C83CA01B9010E94A52823E33A
:1042200033E343E35FE369837A838B839C83698110
:104230007A818B819C810E94092969837A838B838F
:104240009C8369817A818B819C810E946D28609317
:104250000E028D81082E000C990BAA0BBB0B8983D3
:104260009A83AB83BC83BC01CD010E94A52823E3C4
:1042700033E343E35FE369837A838B839C836981C0
:104280007A818B819C810E94092969837A838B833F
:104290009C8369817A818B819C810E946D286093C7
:1042A0000F02111624F40E946E1F80931002809159
:1042B000100287FF05C00E946E1F81958093100237
:1042C0009E81191624F40E946E1F80931102809122
:1042D000110287FF05C00E946E1F81958093110215
:1042E00026960FB6F894DEBF0FBECDBFDF91CF91FB
:1042F0001F910C948E208F3F09F057CF68CF85E037
:10430000EDE0F2E0DF011D928A95E9F710920C02D0
:1043100010920B020895809132020895CF93DF939B
:1043200000D00F92CDB7DEB720915802243019F596
:1043300023E029838A839B832093E9008FEF909168
:10434000E800815095FD06C095ED9A95F1F70000C3
:104350008111F5CF8091E80085FF0DC050E040E06D
:1043600063E070E0CE0101960E94ED238091E800A9
:104370008E778093E8000F900F900F90DF91CF9190
:104380000895CF93DF9300D00F92CDB7DEB79C0195
:1043900080915802843031F582E0898320583109B8
:1043A0003B832A8383E08093E9008FEF9091E800BC
:1043B000815095FD06C095ED9A95F1F700008111A9
:1043C000F5CF8091E80085FF0DC050E040E063E04C
:1043D00070E0CE0101960E94ED238091E8008E7777
:1043E0008093E8000F900F900F90DF91CF91089588
:1043F000209158022430F1F422E02093E9002FEFBD
:104400003091E800215035FD06C035ED3A95F1F7C1
:1044100000002111F5CF2091E80025FF0BC050E0EE
:1044200040E065E070E00E94ED238091E8008E7727
:104430008093E8000895CF93DF93D82FC92F809100
:1044400058028430F1F4909113019923E9F090918E
:10445000520297FF19C08093E9008FEF9091E80016
:10446000815095FD06C095E19A95F1F70000811104
:10447000F5CF8091E80050E040E060E270E085FD1B
:104480001AC0DF91CF91089581E08093E9008FEF0A
:104490009091E800815095FD06C095ED9A95F1F751
:1044A00000008111F5CF8091E80085FFEACF50E050
:1044B00040E068E070E08D2F9C2F0E94ED238091FA
:1044C000E8008E778093E80080E2ED2FFC2FA2E1D8
:1044D000B2E001900D928A95E1F7D3CF8091570217
:1044E000811109C00E9475250E94D2258091E200A9
:1044F00084608093E2000895109257020895089511
:1045000008950C94F51C42E061EC81E00E94F124D6
:1045100042E061EC82E00E94F12442E061EC83E041
:104520000E94F12442E261EC84E00C94F124809139
:104530005A02893089F148F4823009F494C08330FA
:1045400009F44FC0813041F008958A3009F47BC0EE
:104550008B3009F461C0089580915902813A09F0C5
:104560003FC08091E800877F8093E80080915D02E2
:1045700090915E02892B61F460E282E192E070E04A
:104580000E943C248091E8008B778093E800089596
:1045900060E090E080E0F3CF80915902813201F534
:1045A00080915D0290915E02009711F00397C1F433
:1045B0008091E800877F8093E8008091E80082FF87
:1045C0000BC08091F100809332028091E8008B77DC
:1045D0008093E8000C942525809158028111EDCF3D
:1045E000089580915902813AD9F780915D029091A6
:1045F0005E02892BA9F78091E800877F8093E8000D
:104600008091E80080FFFCCF809113018093F1003E
:104610008091E8008E77DCCF80915902813201F7DA
:1046200080915D0290915E02892BD1F68091E80025
:10463000877F8093E8000E94252580915B0280930C
:1046400013010C94451580915902813249F68091ED
:10465000E800877F8093E8000E94252580915C0216
:1046600080933302089580915902813A09F0B8CFBE
:104670008091E800877F8093E8008091E80080FFC8
:10468000FCCF80913302C2CF84B7877F84BF0FB63F
:10469000F894A895809160008861809360001092E2
:1046A00060000FBE80E880936100109261000E945C
:1046B00097100E9475250E94D2258091E2008460A7
:1046C0008093E20078940E9452280E94991089E019
:1046D00091E00E94431080915802853029F00E9499
:1046E000A1100E941010F7CF0E94B21C80915602B8
:1046F000882389F30E94E01C882369F30E94D72352
:10470000EACF9C01DA01892F992783309105C1F006
:1047100068F48130910509F445C0029761F48DE693
:1047200090E029EE38E02D933C9308958132910575
:10473000E1F0829739F190E080E030E020E0F3CFC3
:10474000C9019927213059F08230910559F0E5EEE1
:10475000F8E0892B81F7849190E09F01E4CFEDECA4
:10476000F8E0F9CFE9EBF8E0F6CF643020F7E62F78
:10477000F0E0EE0FFF1FE05DFE4F2081318189E008
:1047800090E0D1CF6430B8F670E0FB01EE0FFF1F70
:10479000E85DFE4F208131816C5D7E4FFB018081A1
:1047A00090E0C1CF82E190E026E539E0BCCF80E126
:1047B00089BD82E189BD09B400FEFDCF8091D8009A
:1047C0008F7D8093D8008091E00082608093E0002C
:1047D0008091E00081FDFCCF0895AF92BF92CF920F
:1047E000DF92FF920F931F93CF93DF936C01EB0146
:1047F0008A010E944425F82E811123C0011511055C
:1048000039F0F80180819181C81BD90BC80ED91EDF
:10481000B12CA12C2097A9F08091E80085FD22C041
:104820008091E8008E778093E80001151105A1F0D2
:10483000F80180819181A80EB91EB182A08285E025
:10484000F82E8F2DDF91CF911F910F91FF90DF9068
:10485000CF90BF90AF9008950E9444258823D1F255
:10486000F82EEFCFF60181916F018093F10021972F
:10487000FFEFAF1ABF0ACECFFC01CB0120915F0240
:10488000309160022617370790F0009729F42091A5
:10489000E8002E772093E80040E0009751F44111A2
:1048A00008C08091E80082FF31C080E00895C9010E
:1048B000F3CF209158022223A9F12530A9F12091AC
:1048C000E80023FD2DC02091E80022FDEACF2091D1
:1048D000E80020FFE2CF3091F3002091F200009732
:1048E00019F02830310558F041E02830310509F041
:1048F00040E02091E8002E772093E800CECF419150
:104900004093F10001972F5F3F4FE9CF809158020C
:10491000882341F0853041F08091E80083FFC1CFCA
:1049200081E0089582E0089583E00895FC01CB01C1
:1049300020915F02309160022617370790F00097B0
:1049400029F42091E8002E772093E80040E00097BA
:1049500051F4411108C08091E80082FF32C080E02C
:104960000895C901F3CF209158022223B1F12530D7
:10497000B1F12091E80023FD2EC02091E80022FD36
:10498000EACF2091E80020FFE2CF3091F3002091A0
:10499000F200009719F02830310558F041E0283036
:1049A000310509F040E02091E8002E772093E800DF
:1049B000CECF44914093F100319601972F5F3F4F46
:1049C000E8CF80915802882341F0853041F08091F2
:1049D000E80083FFC0CF81E0089582E0089583E07E
:1049E0000895982F973028F08F708093E90081E028
:1049F00008959093E900242F762F50E0981731F016
:104A00007091EC002091ED005091F00021FD02C06A
:104A10009F5FE8CF3091EB003E7F3093EB00309109
:104A2000ED003D7F3093ED003091EB00316030932D
:104A3000EB007093EC002093ED005093F000209178
:104A4000EE0027FDE5CF80E008958091590287FFB1
:104A500013C08091E80082FF06C08091E8008B7748
:104A60008093E80004C0809158028111F2CF08952C
:104A7000809158028823D9F38091E80080FFF8CF15
:104A80008091E8008E77ECCF2091E4003091E50032
:104A900095E6A9012091EC00822F817020FF06C0CD
:104AA0008091E80080FF06C080E008952091E80032
:104AB00022FD1AC080915802882389F0853089F040
:104AC0008091EB0085FD0FC02091E4003091E5005E
:104AD00042175307F9F29150E1F684E0089582E01D
:104AE000089583E0089581E008950E94E3250E94DF
:104AF000EB25E0EEF0E0808181608083E8EDF0E07E
:104B000080818F77808319BCA7EDB0E08C918E7F78
:104B10008C9380818F7E80831092570208950F932B
:104B20001F93CF93DF930E94E3250E94EB25C8EDEE
:104B3000D0E088818F7788838881806888838881A6
:104B40008F7D888319BC10925802109254021092E3
:104B500056021092550200EE10E0F80180818B7F22
:104B6000808388818160888342E060E080E00E94E9
:104B7000F124E1EEF0E080818E7F8083E2EEF0E0D0
:104B8000808181608083808188608083F80180815A
:104B90008E7F8083888180618883DF91CF911F9190
:104BA0000F910895E8EDF0E080818F7E8083E7ED3E
:104BB000F0E080818160808384E082BF81E0809327
:104BC00057020C948F25E8EDF0E080818E7F808382
:104BD0001092E20008951092DA001092E100089518
:104BE0001F920F920FB60F9211242F933F934F9362
:104BF0005F936F937F938F939F93AF93BF93EF9345
:104C0000FF938091E10082FF0BC08091E20082FF60
:104C100007C08091E1008B7F8093E1000E945128C2
:104C20008091DA0080FF19C08091D80080FF15C004
:104C30008091DA008E7F8093DA008091D90080FF26
:104C400094C080E189BD82E189BD09B400FEFDCF39
:104C500081E0809358020E946E228091E10080FFE3
:104C600019C08091E20080FF15C08091E2008E7F24
:104C70008093E2008091E20080618093E200809165
:104C8000D80080628093D80019BC85E080935802D8
:104C90000E9480228091E10084FF29C08091E2007F
:104CA00084FF25C080E189BD82E189BD09B400FE91
:104CB000FDCF8091D8008F7D8093D8008091E10056
:104CC0008F7E8093E1008091E2008F7E8093E200EE
:104CD0008091E20081608093E200809154028823F9
:104CE00009F449C084E0809358020E948122809197
:104CF000E10083FF29C08091E20083FF25C08091FD
:104D0000E100877F8093E10082E080935802109257
:104D100054028091E1008E7F8093E1008091E20057
:104D20008E7F8093E2008091E20080618093E200B8
:104D300042E060E080E00E94F1248091F000886011
:104D40008093F0000E947F22FF91EF91BF91AF917D
:104D50009F918F917F916F915F914F913F912F9193
:104D60000F900FBE0F901F90189519BC109258020B
:104D70000E947C2272CF8091E30087FD02C081E017
:104D8000B2CF83E0B0CF1F920F920FB60F921124D3
:104D90002F933F934F935F936F937F938F939F9343
:104DA000AF93BF93CF93DF93EF93FF93D091E9003D
:104DB000DF708091EC00C82FC17080FDC0E81092B8
:104DC000E9008091F000877F8093F00078940E9442
:104DD00007271092E9008091F00088608093F0002E
:104DE000CD2BCF70C093E900FF91EF91DF91CF9170
:104DF000BF91AF919F918F917F916F915F914F91F3
:104E00003F912F910F900FBE0F901F9018951F93F9
:104E1000CF93DF93CDB7DEB7AA970FB6F894DEBF76
:104E20000FBECDBF89E592E0FC0101962091F10013
:104E3000208322E081369207B9F70E949722809161
:104E4000E80083FF16C18091590290915A029A306E
:104E500008F00FC1E92FF0E0EF5BF54D0C94C62987
:104E6000803881F0823809F004C180915D028F7032
:104E70008093E9008091EB0085FB882780F91092F0
:104E8000E90006C08091550290915602911182600E
:104E90009091E800977F9093E8008093F100109242
:104EA000F1008091E8008E77E0C0882309F4CEC03D
:104EB000823009F0DEC080915B028111D1C0809107
:104EC0005D028F7009F4D5C08093E9002091EB005A
:104ED00020FFC6C0933031F48091EB008062809354
:104EE000EB00BEC09091EB0090619093EB0021E04D
:104EF00030E001C0220F8A95EAF72093EA00109271
:104F0000EA008091EB008860EACF8111B2C0109175
:104F10005B021F778091E3008078812B8093E30010
:104F20008091E800877F8093E8000E94252580918A
:104F3000E80080FFFCCF8091E30080688093E3006D
:104F400082E0111183E08093580293C08058823030
:104F500008F08FC080915B0290915C028C3D23E051
:104F60009207A1F583E08A838AE289834FB7F89498
:104F7000DE01139620E03EE051E2E32FF0E0509393
:104F80005700E49120FF03C0E295EF703F5FEF70A0
:104F90008E2F90E0EA30C0F0C7968D939D932F5FDF
:104FA000243159F74FBF8091E800877F8093E80054
:104FB0006AE270E0CE0101960E943C248091E800F4
:104FC0008B778093E80055C0C096E7CFAE014F5F66
:104FD0005F4F60915D020E948123BC01892B09F41F
:104FE00048C08091E800877F8093E80089819A819A
:104FF0000E949624E3CF8038E1F58091E800877F16
:105000008093E800809154028093F1004ACF81118F
:1050100030C090915B02923060F58091E800877F0C
:105020008093E800909354020E94252580915402B9
:10503000882311F084E005C08091E30087FDFACF5A
:1050400081E0809358020E94832213C080915B020A
:10505000813079F481E0933009F080E0809356024A
:105060001092E9008091E800877F8093E8000E9419
:1050700025258091E80083FF0AC08091E800877FA2
:105080008093E8008091EB0080628093EB00AA9609
:105090000FB6F894DEBF0FBECDBFDF91CF911F9149
:1050A00008950895CF93809158028823A1F0C0916C
:1050B000E900CF709091EC00892F817090FD80E81D
:1050C000C82B1092E9008091E80083FD0E94072719
:1050D000CF70C093E900CF9108950E94742868941E
:1050E000B1110C94032908950E94E82888F09F5775
:1050F00098F0B92F9927B751B0F0E1F0660F771FFC
:10510000881F991F1AF0BA95C9F714C0B13091F0F1
:105110000E940229B1E008950C940229672F782F8C
:105120008827B85F39F0B93FCCF3869577956795B6
:10513000B395D9F73EF490958095709561957F4F22
:105140008F4F9F4F0895E89409C097FB3EF49095C8
:105150008095709561957F4F8F4F9F4F9923A9F050
:10516000F92F96E9BB279395F695879577956795DF
:10517000B795F111F8CFFAF4BB0F11F460FF1BC023
:105180006F5F7F4F8F4F9F4F16C0882311F096E9B6
:1051900011C0772321F09EE8872F762F05C0662364
:1051A00071F096E8862F70E060E02AF09A95660F1D
:1051B000771F881FDAF7880F9695879597F90895D6
:1051C00057FD9058440F551F59F05F3F71F04795B8
:1051D000880F97FB991F61F09F3F79F0879508959D
:1051E000121613061406551FF2CF4695F1DF08C0BC
:1051F000161617061806991FF1CF869571056105D9
:1052000008940895E894BB2766277727CB0197F980
:1052100008950E941C290C948D290E947F2938F042
:105220000E94862920F0952311F00C9476290C9485
:105230007C2911240C9403290E94E02870F3959F87
:10524000C1F3950F50E0551F629FF001729FBB277D
:10525000F00DB11D639FAA27F00DB11DAA1F649F19
:105260006627B00DA11D661F829F2227B00DA11DCC
:10527000621F739FB00DA11D621F839FA00D611D52
:10528000221F749F3327A00D611D231F849F600D73
:10529000211D822F762F6A2F11249F5750409AF09C
:1052A000F1F088234AF0EE0FFF1FBB1F661F771F28
:1052B000881F91505040A9F79E3F510580F00C94F3
:1052C00076290C9403295F3FE4F3983ED4F3869546
:1052D00077956795B795F795E7959F5FC1F7FE2B93
:1052E000880F911D9695879597F9089597F99F676F
:1052F00080E870E060E008959FEF80EC089500245E
:105300000A941616170618060906089500240A942A
:1053100012161306140605060895092E0394000CB0
:1053200011F4882352F0BB0F40F4BF2B11F460FF3F
:1053300004C06F5F7F4F8F4F9F4F0895AA1BBB1B09
:1053400051E107C0AA1FBB1FA617B70710F0A61B85
:10535000B70B881F991F5A95A9F780959095BC01A6
:10536000CD01089597FB072E16F4009407D077FD22
:1053700009D00E949E2907FC05D03EF490958195A6
:105380009F4F0895709561957F4F0895EE0FFF1F11
:105390000590F491E02D0994F999FECF92BD81BD5D
:1053A000F89A992780B50895A6E1B0E044E050E06E
:1053B0000C94062AA8E1B0E042E050E00C94062AE2
:1053C000262FF999FECF92BD81BDF89A019700B4BE
:1053D000021639F01FBA20BD0FB6F894FA9AF99A5E
:1053E0000FBE08950396272F0E94E1290E94E0290D
:1053F000252F0E94E129242F0C94E1290196272FC3
:105400000E94E1290C94E029DC01CB01FC01F9990F
:10541000FECF06C0F2BDE1BDF89A319600B40D9200
:1054200041505040B8F70895F894FFCF3A063F0630
:10543000440649064E0653065806B006D5065D06D4
:1054400069066D067106750679067D068106850674
:1054500089068D069106950699069D06A106A50664
:10546000A906F012F012481348138C13A813201346
:105470002013B31320137B147B14E6142013201382
:10548000EF14302755273928552739288527A6278F
:065490003928FB27072864
:10549600FFE4012808140A321E8B211B22F821C1C1
:1054A600218E2101F4F5F6F790913534C69766946E
:1054B60031333632404D3639240AD709A1096809F5
:0854C600FB0814092D09460939
:00000001FF
